:020000040800F2
:1000000000500020F1010008350200083502000808
:100010003502000835020008350200080000000023
:10002000000000000000000000000000CD270008D4
:100030003502000800000000292800087528000883
:1000400035020008350200083502000835020008B4
:1000500035020008350200083502000835020008A4
:100060003502000835020008350200083502000894
:100070003502000835020008350200083502000884
:100080003502000835020008350200083502000874
:100090003502000835020008350200083502000864
:1000A0003502000835020008350200083502000854
:1000B0003502000835020008350200083502000844
:1000C0003502000835020008350200083502000834
:1000D0003502000835020008350200083502000824
:1000E0003502000835020008350200083502000814
:1000F0003502000835020008350200083502000804
:1001000035020008350200083502000835020008F3
:1001100035020008350200083502000835020008E3
:1001200035020008350200083502000835020008D3
:1001300000000000000000000000000000000000BF
:1001400000000000000000000000000000000000AF
:10015000000000000000000000000000000000009F
:10016000000000000000000000000000000000008F
:10017000000000000000000000000000000000007F
:10018000000000000000000000000000000000006F
:10019000000000000000000000000000000000005F
:1001A000000000000000000000000000000000004F
:1001B000000000000000000000000000000000003F
:1001C000000000000000000000000000000000002F
:1001D000000000000000000000000000000000001F
:0401E0005FF8E0F1F3
:1001F000002103E00A4B5B584350043109480A4B85
:1002000042189A42F6D3094A02E0002342F8043B1E
:10021000074B9A42F9D300F02FFB00F0EDF970473D
:100220004C2C0008000000201800002018000020BE
:1002300070490020FEE70000FEE7FEE7094A08B526
:100240009369094C43F010039361636843F44013CE
:100250006360E36841F2883083F40053E36001F0A7
:1002600011FCF6E70010024000100140224A38B5A8
:100270009369002443F004039361204B204D1A68D6
:1002800042F0332242F44C121A60DA6842F08002E3
:10029000DA60DA6842F08002DA60DA6842F040023E
:1002A000DA60DA6842F02002DA60DA6842F01002BE
:1002B000DA60DA6842F00802DA60DA6842F00402D2
:1002C000DA6000F0AFFA0C2000F023FA00220D48AB
:1002D000114600F08FFA0134284600220121E4B2D1
:1002E00000F088FA20460B22012100F02EFA4FF48C
:1002F0007A7001F0C7FBEEE70010024000080140F1
:10030000132C0008002C00081F4B20499A6942F06A
:1003100004029A610A6822F0F0020A609A6942F4C3
:1003200000729A615A6842F400425A60A3F56C4325
:100330005A6842F020025A600022DA620A225A63A6
:100340009A6842F460229A609A6842F480129A6035
:100350009A6842F002029A609A6842F001029A603A
:100360009A6842F008029A609A681107FCD49A6869
:1003700042F004029A60064B9A685207FCD49A68CD
:1003800042F480029A607047001002400008014069
:100390000024014012221B4B1A60A3F580531A68F7
:1003A00042F480321A601A689103FCD5DA6A42F08E
:1003B0004002DA62DA6A42F4C062DA621A6842F033
:1003C00080621A60DA6A42F48032DA62DA6A42F0F3
:1003D0000402DA625A6842F480325A605A6842F47F
:1003E000E0125A605A6842F480625A601A6842F019
:1003F00080721A601A689201FCD55A6842F00202B3
:100400005A6070470020024082B00190019B094A67
:10041000019B0BB902B07047938A9BB243F0010372
:100420009382938C9BB2042BFBD9019B013B0193DC
:10043000EEE700BF00040040084AD36943F002031E
:10044000D3610023A2F50332138040F2CF239385BA
:1004500013889BB243F001031380704700100240E1
:100460000123420900F01F0003FA00F0014B43F89A
:100470002200704700E100E00122430900F01F0064
:1004800002FA00F0024A203342F82300704700BF0E
:1004900000E100E04FF0804398867047014B98865A
:1004A000704700BF00080040284B9A6942F00502DF
:1004B0009A61DA6942F00102DA61254A136843F071
:1004C0000B031360234B5A6822F0C0025A605A682B
:1004D00022F440725A604FF080431A8B92B242F07D
:1004E00060021A831A8B92B242F008021A8340F219
:1004F000C5221A8540F2E7329A851A8822F0100246
:100500001204120C1A801A8892B242F080021A80E9
:100510001A8B92B242F008021A839A8A92B242F07F
:1005200001029A821A8C92B242F001021A841A8C49
:1005300022F002021204120C1A841A8892B242F0BB
:1005400001021A8000229A86704700BF0010024004
:100550000008014000000140244BDA6942F0040227
:10056000DA619A6942F009029A61214A1368A2F598
:10057000406243F03063C2F8003C536823F4805378
:1005800053601C4B1A8B92B242F060021A831A8B92
:1005900092B242F008021A8340F2CF221A8540F24A
:1005A000E7329A851A8822F010021204120C1A807F
:1005B0001A8892B242F080021A801A8B92B242F0EC
:1005C00008021A839A8A92B242F001029A821A8C25
:1005D00092B242F001021A841A8892B242F00102E9
:1005E0001A8040F2FF729A86704700BF00100240E6
:1005F000000C0140000800400024042507B500223B
:100600000421052000F0DCFA00220121022000F084
:10061000D7FAFFF7BFFE1148234664221049CDE9FF
:10062000005400F09BFE234664220E49CDE900549D
:100630000D4800F093FE234664220C49CDE9005496
:100640000B4800F08BFE234664220A49CDE9005492
:10065000094800F083FE01F0C7F8FEE76D020008CC
:100660001E2C0008272C00083D0200082E2C000834
:1006700039020008342C00083B02000810B51D4C5C
:1006800010F0100FE36814BF43F0200323F02003A1
:10069000E360E36882064CBF43F0100323F01003CD
:1006A000E360E36842064CBF43F0080323F008030D
:1006B000E360C309E36814BF43F0040323F00403B9
:1006C000E360E36891B143F08003E360E36878207E
:1006D00043F04003E36001F0D5F9E368782023F0AC
:1006E0004003E360BDE8104001F0CCB923F0800383
:1006F000EBE700BF0008014010B504460121FFF7F9
:10070000BDFF20010121BDE8104000F0F000FFF71F
:10071000B5BF10B504460021FFF7B0FF200100214E
:10072000BDE8104000F0F000FFF7A8BF10B5044688
:1007300041B942F08000FFF7ECFF2046BDE81040D1
:10074000FFF7DABF42F0C000F5E72DE9F04742F2CB
:10075000107A4FF47A74B0FBFAF3B0FBF4F90AFBA9
:10076000130A04FB1909BAFBF4F76424B0FBF4F88C
:10077000B9FBF4F604FB18080A24B0FBF4FCB8FB40
:10078000F4F504FB1C00C4B213F0FF00FFB2F6B294
:10079000EDB211D12020FFF7C9FFBAF57A7F0FD251
:1007A0002020FFF7A9FFB9F1630F0FD906F1300040
:1007B000C0B2FFF7A1FF0FE03030C0B2FFF7B6FFC5
:1007C00007F13000C0B2FFF797FFEFE72020FFF7F7
:1007D00093FFB8F1090F03D905F13000C0B200E072
:1007E0002020FFF789FF04F13000C0B2BDE8F047D8
:1007F000FFF782BF70B50E461446451E15F8010F6F
:1008000000B970BD224631460134FFF78FFFE4B2D4
:10081000F4E708B50220FFF77CFFBDE8084001209F
:10082000FFF777BF08B5302001F02CF90021302008
:10083000FFF724FF052001F025F900213020FFF704
:100840001DFF962001F01EF900213020FFF716FF52
:1008500000212020FFF712FF2820FFF75AFF0F206A
:10086000FFF757FF0120FFF754FF0620FFF751FF66
:10087000BDE80840FFF7CDBF374B82B01A6842F0A1
:1008800001021A605968354A0A405A601A6822F013
:10089000847222F480321A601A6822F480221A606C
:1008A0005A6822F4FE025A604FF41F029A60002236
:1008B000009201921A6842F480321A601A6802F4B7
:1008C00000320192009A01320092019A1AB9009AFC
:1008D000B2F5A06FF2D11A6812F4003218BF0122EB
:1008E0000192019A012A30D11D4A116841F010018C
:1008F0001160116821F003011160116841F00201DB
:1009000011605A685A605A685A605A6842F48062A4
:100910005A605A6822F47C125A605A6842F4E8120B
:100920005A601A6842F080721A601A689201FCD507
:100930005A6822F003025A605A6842F002025A6072
:100940005A6802F00C02082AFAD14FF00062054BF7
:100950009A6002B0704700BF001002400000FFF82C
:100960000020024000ED00E01049114A4B6803F0FE
:100970000C03082B0AD00F4B13604B68C3F303130F
:10098000134419791368CB40136070474B6848686B
:10099000C3F38343C00303F1020302D40648434375
:1009A000EAE748688003F9D40248F8E700100240FB
:1009B0000000002000127A0000093D004FF0FF32D5
:1009C00000F10803C0E902234360036100230360D0
:1009D000704700230361704743689A684B608A60E0
:1009E0009A68516099600368086101330360704739
:1009F00030B50C68631C0AD103695A684A6091607B
:100A00008B605960036808610133036030BD00F1F9
:100A10000802134652681568A542FAD9EDE7036942
:100A2000D0E901128A6051605968814208BF5A605A
:100A3000002202611A68013A1A601868704710B5FE
:100A4000044601F0D8FEA46B01F0E4FEB4FA84F091
:100A5000400910BDF8B51546026C0446866B52B9C4
:100A6000076847BB806801F09BFA0546A76001361E
:100A70002846A663F8BD65B9406801F0F9FF6368D0
:100A8000226C1344A26863609342F0D323686360CE
:100A9000EDE7C06801F0ECFF226CE36851429B1A5D
:100AA0002268E36093423EBFA3685B18E360022DB7
:100AB00001D116B1013E0025D9E73546D7E70346F7
:100AC0001A6C084610B462B1DC68996814448C4210
:100AD00028BF1968DC6028BFD960D96810BC01F054
:100AE000C7BF10BC704770B5044601F084FE94F88F
:100AF000455004F124066DB2002D14DCFF2384F868
:100B0000453001F087FE01F076FE94F8445004F180
:100B100010066DB2002D12DCFF2384F84430BDE8CE
:100B2000704001F077BE636A002BE7D0304601F0D9
:100B300075F808B101F006F9013D6DB2DCE72369F3
:100B4000002BE9D0304601F069F808B101F0FAF85D
:100B5000013D6DB2DEE738B504460D4601F04BFEAF
:100B6000D4E90F314B432268D0185B1A1344A060BC
:100B7000E3600020FF23A063626084F8443084F8BF
:100B80004530A5B9236973B104F1100001F046F8AE
:100B900048B14FF0E0234FF08052C3F8042DBFF36B
:100BA0004F8FBFF36F8F01F035FE012038BD04F188
:100BB0001000FFF703FF04F12400FFF7FFFEF2E748
:100BC000F8B50646484350300D46174601F0B6FECC
:100BD000044658B165B100F1500301212046C4E933
:100BE0000F652360FFF7B7FF84F84C702046F8BD0F
:100BF0000346F2E710B502220C460021FFF7E0FFA2
:100C000000B1846310BD2DE9F0434FF000080446A5
:100C10000F461E46C14685B0019201F0ECFDA26B65
:100C2000E36B9A4201D3022E1BD13246394620464D
:100C3000FFF710FF636A1BB104F1240000F0EEFF20
:100C400048B14FF0E0234FF08052C3F8042DBFF3BA
:100C50004F8FBFF36F8F01F0DDFD012005B0BDE8C0
:100C6000F083019D1DB901F0D5FD0020F6E7B8F134
:100C7000000F02D102A801F035F801F0CBFD00F021
:100C8000F1FD01F0B8FD94F84430FF2B08BF84F863
:100C9000449094F84530FF2B08BF84F8459001F04C
:100CA000B9FD01A902A801F027F840BB01F0A3FD9E
:100CB000A26BE36B9A420FD101F0ACFD019904F1F4
:100CC000100000F071FF2046FFF70DFF00F054FE0A
:100CD00050B14FF00108A0E701F09CFD2046FFF75E
:100CE00002FF00F049FEF4E74FF0E0234FF080529E
:100CF000C3F8042DBFF34F8FBFF36F8FE9E7204692
:100D0000FFF7F1FE00F038FEAFE7024610B5002114
:100D10000120FFF755FF044638B100231A46194653
:100D200083600360C360FFF76EFF204610BD38B5D7
:100D30008568044601F0CEF885420AD1E368013B9C
:100D4000E36023B91A4619462046FFF75CFF0120ED
:100D500000E0002038BDF8B5174604461A46EFF308
:100D600011864FF0100383F31188BFF36F8FBFF329
:100D70004F8F806BE36B984201D3022A1DD194F808
:100D8000455020466DB2FFF765FE6B1C10D1636ABB
:100D90000BB9012009E004F1240000F03FFF002816
:100DA000F7D0002FF5D00120386086F31188F8BD08
:100DB00001356DB284F84550EBE70020F5E738B512
:100DC0000C46EFF311854FF0100383F31188BFF346
:100DD0006F8FBFF34F8F826BC36B93421BD990F819
:100DE00045100132FF294BB282630FD1436A0BB920
:100DF000012008E0243000F011FF0028F8D0002C7A
:100E0000F6D00120206085F3118838BD01335BB234
:100E100080F84530ECE70020F5E72DE9FF41002799
:100E200004460E46B846019201F0E5FCA56BE5B11B
:100E300031462046013DFFF742FEA563236973B1A9
:100E400004F1100000F0EAFE48B14FF0E0234FF04B
:100E50008052C3F8042DBFF34F8FBFF36F8F01F0A3
:100E6000D9FC012004B0BDE8F081019D1DB901F05D
:100E7000D1FC0020F6E717B902A800F033FF01F01B
:100E8000C9FC00F0EFFC01F0B6FC94F84430FF2BF5
:100E900008BF84F8448094F84530FF2B08BF84F8DD
:100EA000458001F0B7FC01A902A800F025FF00BBB6
:100EB0002046FFF7C4FDB0B1019904F1240000F011
:100EC00073FE2046FFF70FFE00F056FD48B94FF0C5
:100ED000E0234FF08052C3F8042DBFF34F8FBFF3D0
:100EE0006F8F0127A0E72046FFF7FDFD00F044FDCE
:100EF000F7E72046FFF7F7FD00F03EFD2046FFF73D
:100F00009EFD0028EDD0B4E72DE9FF410025044601
:100F10002F462E46019101F06EFCA36BF3B1013B0D
:100F2000A363236813B901F0C1F8A060236973B10A
:100F300004F1100000F072FE48B14FF0E0234FF0D2
:100F40008052C3F8042DBFF34F8FBFF36F8F01F0B2
:100F500061FC0125284604B0BDE8F081DDF804807D
:100F6000B8F1000F03D101F055FC0025F2E717B9E5
:100F700002A800F0B7FE01F04DFC00F073FC01F098
:100F80003AFC94F84430FF2B08BF84F8446094F88E
:100F90004530FF2B08BF84F8456001F03BFC01A9F8
:100FA00002A800F0A9FE50BB2046FFF748FD00B3A1
:100FB00023683BB901F01FFCA06800F0A1FF0546C3
:100FC00001F028FC019904F1240000F0EDFD204619
:100FD000FFF789FD00F0D0FC48B94FF0E0234FF057
:100FE0008052C3F8042DBFF34F8FBFF36F8F0127DB
:100FF00091E72046FFF777FD00F0BEFCF7E72046BB
:10100000FFF771FD00F0B8FC2046FFF718FD00283F
:10101000EDD0002D9ED001F0EEFB616A19B1236B7B
:101020001968C1F10501A06800F0F2FF9BE770B5F7
:10103000866804460D4600F04DFF864204D101202B
:10104000E3680133E36070BD29462046FFF75CFF8B
:101050000028F8D0E3680133E360F4E72DE9FF41AD
:10106000002704460E46B846019201F0C4FBA36B6C
:10107000E3B131462046E568FFF721FD636AE5608C
:1010800073B104F1240000F0C9FD48B14FF0E02332
:101090004FF08052C3F8042DBFF34F8FBFF36F8F13
:1010A00001F0B8FB012004B0BDE8F081019D1DB93D
:1010B00001F0B0FB0020F6E717B902A800F012FE1D
:1010C00001F0A8FB00F0CEFB01F095FB94F8443052
:1010D000FF2B08BF84F8448094F84530FF2B08BFED
:1010E00084F8458001F096FB01A902A800F004FEF7
:1010F00000BB2046FFF7A3FCB0B1019904F1240026
:1011000000F052FD2046FFF7EEFC00F035FC48B938
:101110004FF0E0234FF08052C3F8042DBFF34F8F00
:10112000BFF36F8F0127A0E72046FFF7DCFC00F03C
:1011300023FCF7E72046FFF7D6FC00F01DFC204615
:10114000FFF77DFC0028EDD0B4E72DE9F04105461E
:101150009046EFF311874FF0100383F31188BFF32C
:101160006F8FBFF34F8F846B0CB390F84460013CDA
:1011700076B2FFF7A4FC731CAC6313D12B690BB9D7
:1011800001200BE005F1100000F048FD0028F7D029
:10119000B8F1000FF4D00120C8F8000087F31188DF
:1011A000BDE8F081013676B285F84460E8E7204674
:1011B000F4E770B50446EFF311854FF0100383F3A5
:1011C0001188BFF36F8FBFF34F8F836B3BB1C6683E
:1011D000FFF775FC0120E66085F3118870BD1846A5
:1011E000FAE710B5044601F006FBA46B01F012FB10
:1011F000204610BD10B5044601F0FDFAA06BE46B6B
:10120000241A01F007FB204610BD806B704701F0E7
:10121000FFBB806C70478164704790F84C0070474A
:10122000806BB0FA80F040097047836BC06BC31AC3
:1012300058425841704770B504460D46164601F0B5
:10124000DAFA94F84430FF2B04BF002384F84430CA
:1012500094F84530FF2B04BF002384F8453001F09B
:10126000D9FAA36B2BB93246294604F1240000F0C9
:10127000BFFC2046BDE8704035E40000F8B5184CCE
:101280000646256860680F460430FFF7C8FB38B98A
:101290006268A368D16A01228A4023EA0203A3603C
:1012A000731C07D137B161680E480431BDE8F840BE
:1012B000FFF792BB6368AD195D6006D3206A616871
:1012C000BDE8F8400431FFF793BB606A6168043100
:1012D000FFF78EFBA36AAB4288BFA562F8BD00BFD3
:1012E0001800002024000020064B5A6A12681AB920
:1012F0004FF0FF329A6270475A6AD268D2685268D9
:10130000F8E700BF1800002080B54FF0E0264FF04E
:101310008057114C636C4BB9A36C012BFAD9C6F8FA
:10132000047DBFF34F8FBFF36F8FF3E701F063FAD4
:10133000A36BDD68281DFFF772FB236C013B236460
:10134000636C013B636401F065FA286B01F060FB9C
:10135000284601F05DFBDDE7180000202DE9F84F7D
:101360009600074630460D46984601F0E7FA81465A
:10137000A0B15C2001F0E2FA044660B1C0F8309000
:101380003246A521484601F0E9FBD4F830B045B912
:1013900084F8345013E0484601F03AFB4FF0FF3632
:1013A0008CE06B1E04F134020F3513F8010F02F8C4
:1013B000010B08B19D42F8D1002384F843300A9D07
:1013C0004FF0000A042D28BF042504F10409484603
:1013D000E562E564C4F850A0043EFFF7FAFAC5F1EF
:1013E000050504F118005E44FFF7F3FAC4F854A0B1
:1013F000424639462461A561646284F858A026F00B
:10140000070001F0D2F90B9B206003B11C60324D44
:1014100001F0F1F92B6C05F1480701332B646E687C
:10142000002E4ED16C602B6C012B20D1B84640466B
:101430000136FFF7C3FA052E08F11408F7D1274E3D
:10144000304606F11408FFF7B9FA4046FFF7B6FA3E
:1014500006F12800FFF7B2FAA6F18000FFF7AEFA16
:10146000A6F1A000FFF7AAFA6E62C5F82080012657
:101470001420D5F8EC30E26AA9680133C5F8EC30E5
:10148000636406FA02F30B4300FB02704946AB604B
:10149000FFF7A2FA01F0BEF9D5F8E83073B16B6836
:1014A000DA6AE36A9A4209D24FF0E0234FF08052A1
:1014B000C3F8042DBFF34F8FBFF36F8F3046BDE8E5
:1014C000F88FD5F8E830002BD1D16B68E26ADB6A7F
:1014D0009A4228BF6C60CAE718000020C4000020B0
:1014E00070B50546244C01F086F905B965682E1DD6
:1014F0003046FFF794FA58B91420E96A00FB01401E
:10150000836C2BB90122A3688A4023EA0203A360FB
:10151000AB6A1BB105F11800FFF781FAD4F8EC3083
:101520000133C4F8EC306368AB4219D1314613483B
:10153000FFF752FA636C0133636401F06BF9D4F87E
:10154000E83063B16368AB4209D14FF0E0234FF05C
:101550008052C3F8042DBFF34F8FBFF36F8F70BD60
:10156000236C286B013B236401F052FA284601F0FA
:101570004FFAFFF7B9FEE0E7180000204400002012
:101580002DE9F041164C05466368834221D001F0F5
:1015900032F9D4F824806E69276A01F03BF9464598
:1015A00019D0BE4217D004F10C039E4209D1AB6A98
:1015B0008BB995F85830012B0CBF02200320BDE8F1
:1015C000F0812C34A64208D0002E0CBF042001204C
:1015D000F5E70020F3E70220F1E70420EFE700BF82
:1015E0001800002010B5044601F005F90CB9034BB2
:1015F0005C68E46A01F00EF9204610BD1800002076
:10160000EFF311834FF0100282F31188BFF36F8F55
:10161000BFF34F8F08B9034A5068C06A83F311883B
:10162000704700BF1800002004292DE9F84328BFA7
:10163000042104460D4601F0DEF80CB9294B5C6824
:10164000E36C9D4242D0274F44D97A68A24246D0EB
:101650007A68D66AAE428CBF00260126D4F82C9058
:10166000E5644B45A36908BFE562002B4FF0140306
:10167000A4BFC5F10505A5611B4D626903FB0953B4
:101680009A4218D104F104084046FFF7C8F930B96E
:101690000122BB6802FA09F223EA0203BB600123BC
:1016A0001420E26AB96893400B4300FB02504146A4
:1016B000BB60FFF791F94EB14FF0E0234FF080523D
:1016C000C3F8042DBFF34F8FBFF36F8FBDE8F8430E
:1016D00001F0A0B87E68321B56425641BEE7002694
:1016E000BCE700BF180000206000002070B51C4D52
:1016F00004466B68834232D088B301F07CF862699B
:1017000005F10C039A4226D1A36A05F1D402934253
:1017100021D003BB261D3046FFF781F90123142099
:10172000E26AA96893400B43AB6005F1480300FBF4
:1017300002303146FFF750F96B68E26ADB6A9A4281
:1017400009D34FF0E0234FF08052C3F8042DBFF3CC
:101750004F8FBFF36F8FBDE8704001F05BB870BD75
:10176000180000202DE9F0410646EFF311874FF0F5
:10177000100383F31188BFF36F8FBFF34F8F194DA1
:10178000426905F10C039A4229D1846A05F1D4001B
:10179000844224D01CBBD5F8F030EBB96B68F46AF6
:1017A000DB6A06F104089C42404634BF0024012451
:1017B000FFF735F901231420F26AA96893400B431F
:1017C0004146AB60483500FB0250FFF705F987F34F
:1017D00011882046BDE8F08106F11801F5E70024E4
:1017E000F5E700BF1800002037B50025124C78221D
:1017F00004F1F403019311492B4611480095FFF7BA
:10180000ADFD012816D100F00FFE012812D14FF0D6
:10181000100383F31188BFF36F8FBFF34F8F4FF027
:10182000FF33A362C4F8E800256003B0BDE8304090
:1018300001F041B803B030BD180000203D2C000875
:10184000091300084FF0100383F31188BFF36F8F63
:10185000BFF34F8F0022024BC3F8E82000F0CABF4D
:1018600018000020034AD2F8F0300133C2F8F030FB
:10187000704700BF18000020014B1868704700BF78
:1018800018000020014B1868704700BF18000020A6
:10189000014B186C704700BF1800002008B9024BBC
:1018A00058683430704700BF180000202DE9F84F09
:1018B0002F4CD4F8F030002B53D127680137276024
:1018C00057B9636A226A62622362D4F8F83001333E
:1018D000C4F8F830FFF708FDA36A0025BB4210D911
:1018E00014226368DB6A02FB03439B6C022B28BF54
:1018F0000125D4F80031002B0CBF28460120BDE89B
:10190000F88F4FF0010A4FF01409DFF86880636A1E
:101910001B681BB94FF0FF33A362E1E7636ADB6822
:10192000DE6873689F42F7D306F1040B5846FFF751
:1019300076F8B36A1BB106F11800FFF770F8F06A89
:10194000A2680AFA00F31343594609FB0080A3601A
:10195000FFF742F86368F26ADB6A9A4228BF012502
:10196000D5E7D4F8FC3000250133C4F8FC30C0E7DB
:1019700018000020600000202DE9F8432D4C00F0F5
:101980003AFFD4F8F030013BC4F8F030D4F8F0500E
:101990002DB1002400F03EFF2046BDE8F883236C03
:1019A000002BF6D001264FF0140804F148071DE083
:1019B000D4F8E030DD6805F1040905F11800FFF7FF
:1019C0002EF84846FFF72BF8E86AA26806FA00F3FB
:1019D0001343494608FB0070A360FEF7FDFF6368F0
:1019E000EA6ADB6A9A4201D3C4F80061D4F8D430C1
:1019F000002BDDD10DB1FFF777FCD4F8FC504DB1D1
:101A00000126FFF753FF08B1C4F80061013DF8D18A
:101A1000C4F8FC50D4F80031002BBAD04FF0E023CA
:101A20004FF08052C3F8042DBFF34F8FBFF36F8F79
:101A30000124AFE71800002010B5FFF713FF104B8B
:101A400004681A6863182CBF0121002194420360C6
:101A50000ED971B9FFF790FF48B94FF0E0234FF06E
:101A60008052C3F8042DBFF34F8FBFF36F8F10BDAB
:101A700009B99A42EED20021981AFFF7FFFBE9E775
:101A80001800002008B550B94FF0E0234FF0805205
:101A9000C3F8042DBFF34F8FBFF36F8F08BD002134
:101AA000FFF7E0FEFFF7EAFBFFF766FF0028EBD049
:101AB000F4E7124A30B5D2F8F0301BB10123C2F876
:101AC000003130BDC2F800319368B3FA83F31425B6
:101AD000DBB2C3F11F0305FB03F150180146C46CD0
:101AE0005031646805FB03238C4208BF6168C464FD
:101AF00008BFC164DB6CDB685360E2E718000020BC
:101B000070B50446264D00F076FE04B96C68261DBB
:101B10003046FEF784FF58B91420E16A00FB0150FB
:101B2000836C2BB90122AB688A4023EA0203AB60C5
:101B3000A36A1BB104F11800FEF771FF3146194882
:101B4000FEF74AFF94F85830012B04BF002384F8B5
:101B5000583000F05FFED5F8E8302BB100F04BFEB6
:101B6000FFF7C2FB00F056FE6B68A3420CD1D5F81C
:101B7000E83053B14FF0E0234FF08052C3F8042D0A
:101B8000BFF34F8FBFF36F8F70BDE9682A6C91422E
:101B900001D16B60F8E7BDE87040FFF78ABF00BF76
:101BA000180000202400002010B50C46054B596891
:101BB0001831FEF71DFF2046BDE810400121FFF758
:101BC0005DBB00BF1800002010B51446074B41F064
:101BD00000415A68916159681831FEF7FDFE2046B0
:101BE000BDE810400121FFF749BB00BF18000020ED
:101BF00038B514460D46084B59681831FEF7ECFE0F
:101C0000002C214608BF2846BDE8384018BF4FF0D9
:101C1000FF30FFF733BB00BF18000020C36870B56A
:101C2000DD68144C05F118063046FEF7F8FED4F8CE
:101C3000F030DBB92E1D3046FEF7F1FE01231420F3
:101C4000EA6AA16893400B433146A36004F148035C
:101C500000FB0230FEF7C0FE6368EA6ADB6A9A4264
:101C60008ABF01200020C4F8000170BD314604F194
:101C7000D400EFE718000020F8B5C56841F0004136
:101C8000012601602F1DFEF7CAFE3846FEF7C7FE8B
:101C900014200B4CEA6AA16806FA02F30B43A36016
:101CA00004F1480300FB02303946FEF795FE6368F5
:101CB000EA6ADB6A9A4288BFC4F80061F8BD00BFD7
:101CC0001800002010B5044600F095FD044BD3F831
:101CD000F8201B6822606360BDE8104000F09ABDE8
:101CE00018000020034BD3F8F8201B680260436003
:101CF000704700BF1800002070B50C46054600F084
:101D00007AFD23680E485A1C016810D0D0F8F800FC
:101D10002E686A68864201D08A420FD9881A8342A7
:101D20000AD95B1A134428462360FFF7DBFF00241F
:101D300000F070FD204670BD002323600124F7E70A
:101D4000180000200122024BC3F80021704700BF99
:101D50001800002000B1806C704700B181647047AA
:101D600070B50C461646054608B91B4A556805F17C
:101D700034026260EA6A052B22612A6B2560E26107
:101D80006A6CA260EA6C62614FF00002A26119D035
:101D900011494968A94209D12273D6B10023296BA0
:101DA000CA5CA52A13D09B08238470BD032B237320
:101DB000F3D1FFF757FDAB6A0BB102232373FFF793
:101DC000DBFDEAE72846FFF7DBFB2073E5E701339D
:101DD000E6E72684E9E700BF180000202DE9F84F68
:101DE0000D6806460C4617462DB300254FF0240B10
:101DF0004B6801F108085B6843454B6004BFCB6842
:101E00004B604B68D3F80CA063680BFB05615B6803
:101E100001229845636008BFD8F8043005F1010538
:101E200008BF63606368D3F80C903B464846FFF7F1
:101E300097FFCA45E8D12846BDE8F88F2DE9F84F4D
:101E4000DFF884901746FFF70DFDD9F840300546BE
:101E50008B4237D8052600244FF0140B4FF024088E
:101E600009F1480A013E08FB045001220BFB06A1C0
:101E7000FFF7B4FF0444002EF4D1022208FB045003
:101E8000D9F82410FFF7AAFF0444022208FB0450EB
:101E9000D9F82010FFF7A2FF0444042208FB0450E5
:101EA0000A49FFF79BFF044408FB0450032208493A
:101EB000FFF794FF044407B13E60FFF75DFD204645
:101EC000BDE8F88F0024F8E7180000204400002047
:101ED00024000020014B5868704700BF1800002004
:101EE000064BD3F8E82032B1D3F8F030002B0CBF0A
:101EF0000220002070470120704700BF180000201A
:101F00002DE9F0410446002835D0234DC36A6A68A4
:101F1000D26A934237D214268269204F002AA8BF82
:101F20006A6806FB0373A2BFD26AC2F1050282612E
:101F300042699A4221D100F104084046FEF76FFD44
:101F400050B9E16A06FB0156B36C2BB90122AB68AC
:101F50008A4023EA0203AB606B681420DB6AA9683D
:101F6000E362012404FA03F20A4300FB03704146D2
:101F7000AA60FEF731FD204603E06B68DB6AC362AE
:101F80000120BDE8F0816B68C06CDC6AA0422CBF08
:101F900000200120F5E700BF1800002060000020AD
:101FA00070B5044608B9002070BD036DC16AC26CEB
:101FB000013B91420365F6D0002BF4D1051D284664
:101FC000FEF72DFD104B58B91421E66A01FB0631CE
:101FD0008A6C2AB901209A68B04022EA00029A600D
:101FE000E26CC2F10501A161E2620124996804FA80
:101FF00002F0084398601420044B294600FB02308D
:10200000FEF7EAFC2046CFE7180000206000002021
:102010002DE9F0410446002837D0C36C994238BFFF
:102020001946C36A8B4230D0026D012A2DD1142685
:10203000174D826905F1480706FB0373002A4269C0
:10204000C162A4BFC1F1050181619A421DD100F1B5
:1020500004084046FEF7E3FCE26A48B906FB025674
:10206000B36C2BB90121AB68914023EA0103AB604B
:1020700001231420A96893400B4300FB02704146E2
:10208000AB60BDE8F041FEF7A7BCBDE8F08100BF42
:1020900018000020044B5A68596890695A68CB6A46
:1020A000C3F105039361704718000020044B5A6880
:1020B0001AB159680A6D01320A655868704700BF45
:1020C0001800002070B5174C06460D4600F093FB33
:1020D00063685B6D8BB90121636883F8581065B143
:1020E0002846FFF7CBF84FF0E0234FF08052C3F8BB
:1020F000042DBFF34F8FBFF36F8F00F08BFB00F009
:102100007AFB63685D6D1DB163684EB100225A654C
:102110000022636883F8582000F07CFB284670BDDD
:102120006A1EF4E7180000202DE9F0411F4C1E46FE
:1021300080460F46154600F05EFB636893F8583002
:10214000022B16D001216268536D23EA0803536500
:10215000636883F8581066B13046FFF78FF84FF088
:10216000E0234FF08052C3F8042DBFF34F8FBFF32D
:102170006F8F00F04FFB00F03EFB15B163685B6DA5
:102180002B60636893F85830022B03BF6268012507
:10219000536D002504BFBB4353650022636883F879
:1021A000582000F037FB2846BDE8F08118000020D9
:1021B000F8B51D4604460F46164600F01CFB0DB14F
:1021C000636D2B60022394F85850721EEDB284F8B0
:1021D0005830032A0AD8DFE802F002060410616DC5
:1021E0000F43676502E0636D01336365012D08D01D
:1021F000012500F00FFB2846F8BD022DF1D1002586
:10220000F7E7271D3846FEF70AFC14200E4EE26A57
:10221000B16805FA02F30B43B36006F1480300FB13
:1022200002303946FEF7D8FB7368E26ADB6A9A42ED
:10223000DED94FF0E0234FF08052C3F8042DBFF3F6
:102240004F8FBFF36F8FD4E7180000202DE9F843BC
:10225000089F0446EFF311884FF0100080F31188B7
:10226000BFF36F8FBFF34F8F0BB1606D1860022308
:1022700094F85850013AEDB284F85830032A0AD83D
:10228000DFE802F002060410636D1943616502E0A5
:10229000636D01336365012D08D0012088F3118837
:1022A000BDE8F883022DF1D10020F7E7124ED6F8F1
:1022B000F030E3B904F104094846FEF7B0FB1420FE
:1022C0004946E36AB2689D40154306F1480200FBA7
:1022D0000320B560FEF780FB7368E26ADB6A9A420E
:1022E000DBD9012307B13B60C6F80031D5E704F123
:1022F000180106F1D400EDE7180000202DE9F8439D
:1023000004460F46EFF311884FF0100383F3118852
:10231000BFF36F8FBFF34F8F022390F8582080F8E0
:102320005830436D012A03F10103D6B243651FD132
:10233000144DD5F8F030FBB900F104094846FEF71A
:102340006EFB14204946E36AAA689E40164305F1D5
:10235000480200FB0320AE60FEF73EFB6B68E26ABA
:10236000DB6A9A4204D9012307B13B60C5F800310A
:1023700088F31188BDE8F88300F1180105F1D40055
:10238000EAE700BF1800002010B5044608B9084B62
:102390005C6800F030FA002094F85830022B0ABF35
:1023A00084F858000446012400F034FA204610BD99
:1023B00018000020F8B50D4C00F01DFA256885B90D
:1023C000271D384604F11806FEF7F8FA3046FEF7E6
:1023D000F5FA2A460C210A20C4E90B76FEF7F0FB39
:1023E0002060BDE8F84000F015BA00BF1C010020D5
:1023F000914208B5416000610AD8D21A83699A42B5
:102400000ED2084B011D186BFEF7F2FA002008BD32
:102410009A4201D2994203D2024B011DD86AF3E7D6
:102420000120F4E71C01002007B5FFF7C3FF084BAC
:10243000186848B1343301930123F0220093054911
:1024400000230548FEF78AFF03B05DF804FB00BFD8
:102450001C010020422C0008692500082DE9F041EC
:1024600080462C200F4615461E4600F067FA0446AB
:10247000A0B1002380F82830FFF79CFF069BC4E939
:102480000676C4F800802362201DFEF7A2FA2DB163
:1024900094F8283043F0040384F828302046BDE83F
:1024A000F0817FB50E4C0546206816461A4678B175
:1024B0000529CDE9011603950CDCFFF711FD00237A
:1024C000022814BF1A46089A206801A9FEF79BFB50
:1024D00004B070BD002301A9FEF73DFCF8E700BF82
:1024E0001C0100202DE9F3470746FFF7C5F91D4DF4
:1024F0000646AB6B834232D94FF00008EB6A1A688C
:102500004AB92A6BC5E90B23012330463B60AE6311
:1025100002B0BDE8F087DB68DC68D3F8009004F116
:10252000040A5046FEF77BFA236A2046984794F83F
:1025300028305B07E2D5A3694B44994506D2514642
:10254000E86A63602461FEF753FAD7E700234A463E
:1025500019462046CDF80080FFF7A3FFCEE7002301
:10256000D3E700BF1C0100202DE9F04300275C4D9C
:1025700087B0EB6AD3F80080B8F1000F50D0002488
:10258000DB68D3F80080FFF76DF903A8FFF7AAFF17
:10259000039B0646002B64D1002C48D140454BD309
:1025A000FFF7EAF9EB6ADB68D3F80C9009F1040055
:1025B000FEF735FA99F82830580733D5D9F81810AE
:1025C0004346324648464144FFF712FF30B12346A6
:1025D0004246214648460094FFF763FF4846D9F833
:1025E000203098470022286803A9FEF716FC00282F
:1025F000BFD0039B002BF5DB059C636913B1201D45
:10260000FEF70DFA02A8FFF76DFF039B0246092BA8
:10261000E8D8DFE803F0292929484F5D2929484FE8
:102620000124B0E723F0010389F82830D6E72B6BAB
:102630001C68B4FA84F4640922462868A8EB0601F1
:10264000FEF7F9FDFFF798F90028CBD14FF0E02312
:102650004FF08052C3F8042DBFF34F8FBFF36F8F3D
:10266000C0E7FFF789F9BDE794F82830A16943F086
:10267000010384F82830049B20461944FFF7B8FE74
:102680000028AFD0236A2046984794F8283059078D
:10269000A8D50023A269049920460A440097194648
:1026A000FFF7FFFE9EE794F8283023F0010384F83B
:1026B000283097E794F8283043F0010384F8283055
:1026C00004990346A16101442046FFF791FE89E782
:1026D00094F828309A07E8D4204600F099F981E769
:1026E0001C010020014B586B704700BF1C010020EB
:1026F0008069704738B504460D4600F07CF894F8C0
:1027000028303DB143F0040384F82830BDE8384058
:1027100000F080B803F0FB03F6E7406870470068FC
:10272000704710B5044600F066F894F8284000F0B1
:1027300071F804F00104204610BD10B5044600F005
:102740005AF8E46900F066F8204610BD38B5044632
:102750000D4600F050F8E561BDE8384000F05AB889
:10276000406A7047416270470000000000000000AE
:10277000002382B001934FF0100383F31188BFF35D
:102780006F8FBFF34F8F019B002BFCD002B07047BF
:1027900058480068006880F3088862B661B6BFF3E5
:1027A0004F8FBFF36F8F00DF00BF4FF0807340F893
:1027B000043C054B21F0010140F8081C40F80C3C9A
:1027C00040F8202C4038704771270008084B1968E2
:1027D0000868B0E8F00F80F30988BFF36F8F4FF0FF
:1027E000000080F311884EF00D0E7047AFF30080AB
:1027F0001C00002070474FF0100383F31188BFF3D3
:102800006F8FBFF34F8F024A136801331360704715
:1028100014000020034A1368013B13600BB983F3D3
:102820001188704714000020EFF30980BFF36F8F09
:102830000F4B1A6820E9F00F10602DE908404FF0A7
:10284000100080F31188FFF734F94FF0000080F397
:102850001188BDE8084019680868B0E8F00F80F3F7
:102860000988BFF36F8F7047AFF30080AFF300802C
:102870001C00002008B54FF0100383F31188BFF34C
:102880006F8FBFF34F8FFFF711F828B14FF0E023A0
:102890004FF08052C3F8042D002383F3118808BD44
:1028A0004FF0E02300221A619A6140F2CF225A6170
:1028B00007221A6170474FF0E02310B50024D3F8C7
:1028C000202D42F47002C3F8202DD3F8202D42F0C1
:1028D0007042C3F8202DFFF7E3FF054B1C60FFF7A4
:1028E00057FFFFF7E6F8FFF743FF204610BD00BF94
:1028F0001400002008ED00E00F4B30B51D461A46CD
:102900001B688342FBD354681119884201BF416898
:10291000104609195160446801198B4206D1A96813
:102920008B421FBF59681B680919416090420360C0
:1029300018BF106030BD00BF580100202DE9F041E4
:10294000314D0446FEF78EFFAB68F3B92F4A5107AD
:102950001DBFD11D21F0070102F590434FF49043B4
:102960001CBF0A465B1A00211344083B23F00703EF
:1029700069602A60C3E90011991AC2E90031AB60AD
:102980004FF00043C5E903116B61D5F8148018EAD4
:10299000040F37D1002C2DD004F1080362071CBFAF
:1029A00023F0070308336BB32F699F422AD32E68A5
:1029B000154872689A4201D2316801BBA968B142D8
:1029C00020D004683168D21A102A04F1080401608A
:1029D00004D9F01842607360FFF78EFF002372681D
:1029E000E968BF1A8F4248EA02022F6138BFEF60E0
:1029F00072603360FEF7C0FF2046BDE8F0813046CC
:102A00000E46D6E70024F5E75801002070010020AB
:102A100038B50446D8B10E4D50F8043C6A691342EB
:102A200015D050F8081C91B923EA020340F8043C81
:102A3000FEF718FF2A6954F8043CA4F10800134477
:102A40002B61FFF759FFBDE83840FEF795BF38BD51
:102A500058010020014B1869704700BF5801002041
:102A6000014BD868704700BF58010020704700BF75
:102A7000844641EA000313F0030349D1403A23D3CB
:102A80000B6803604B6843608B688360CB68C360EE
:102A90000B6903614B6943618B698361CB69C361D6
:102AA0000B6A03624B6A43628B6A8362CB6AC362BE
:102AB0000B6B03634B6B43638B6B8363CB6BC363A6
:102AC00040304031403ADBD230320BD30B680360E8
:102AD0004B6843608B688360CB68C36010301031F3
:102AE000103AF3D20C3205D351F8043B40F8043BC2
:102AF000043AF9D2043208D0D2071CBF11F8013BC6
:102B000000F8013B01D30B8803806046704700BF8B
:102B1000082A13D38B07B1D010F00303AED0C3F152
:102B20000403D21ADB071CBF11F8013B00F8013B7C
:102B3000A4D331F8023B20F8023B9FE7043AD9D3F3
:102B4000013A11F8013B00F8013BF9D20B78037010
:102B50004B7843708B78837060467047830730B53D
:102B600048D0541E002A3FD00346CAB201E0013CBF
:102B70003AD303F8012B9D07F9D1032C2DD9CDB2FF
:102B800045EA05250F2C45EA054536D9A4F1100282
:102B900022F00F0C03F1200EE6444FEA121C03F161
:102BA000100242E9045542E9025510327245F8D14B
:102BB0000CF1010214F00C0F03EB021204F00F0CE5
:102BC00013D0ACF1040323F003030433134442F89D
:102BD000045B9342FBD10CF003042CB1CAB21C4439
:102BE00003F8012B9C42FBD130BD64461346002CF8
:102BF000F4D1F9E703461446BFE71A46A446E0E7D6
:102C000054657374652044655C2021262823402187
:102C1000254000434F4E5441444F523A20004C430C
:102C2000445F31367832004C45445F3133005553B0
:102C300041727400436F6E74726173740049444C46
:0C2C40004500546D7220537663000000C4
:102C4C0000A24A040000000000000000010203047E
:082C5C0006070809AAAAAAAAAA
:04000005080001F1FD
:00000001FF
