:020000040800F2
:1000000000500020F1010008350200083502000808
:100010003502000835020008350200080000000023
:100020000000000000000000000000007D3000081B
:100030003502000800000000D93000082531000812
:1000400035020008350200083502000835020008B4
:1000500035020008350200083502000835020008A4
:100060003502000835020008350200083502000894
:100070003502000835020008350200083502000884
:100080003502000835020008350200083502000874
:100090003502000835020008350200083502000864
:1000A0003502000835020008350200083502000854
:1000B0003502000835020008350200083502000844
:1000C0003502000835020008350200083502000834
:1000D0003502000835020008350200083502000824
:1000E0003502000835020008350200083502000814
:1000F0003502000835020008350200083502000804
:1001000035020008350200083502000835020008F3
:1001100035020008350200083502000835020008E3
:1001200035020008350200083502000835020008D3
:1001300000000000000000000000000000000000BF
:1001400000000000000000000000000000000000AF
:10015000000000000000000000000000000000009F
:10016000000000000000000000000000000000008F
:10017000000000000000000000000000000000007F
:10018000000000000000000000000000000000006F
:10019000000000000000000000000000000000005F
:1001A000000000000000000000000000000000004F
:1001B000000000000000000000000000000000003F
:1001C000000000000000000000000000000000002F
:1001D000000000000000000000000000000000001F
:0401E0005FF8E0F1F3
:1001F000002103E00A4B5B584350043109480A4B85
:1002000042189A42F6D3094A02E0002342F8043B1E
:10021000074B9A42F9D300F0FBFA00F0B9F97047A6
:100220004C360008000000200800002008000020D4
:1002300064490020FEE70000002307B5074C019346
:10024000019B206801330193002301A91A4601F0A4
:1002500047F9642002F07AF8F2E700BF08000020B6
:10026000094A08B59369094C43F010039361636828
:1002700043F440136360E36841F2883083F4005331
:10028000E36002F063F8F6E700100240001001405E
:10029000204A38B59369002443F0040393611E4B50
:1002A0001E4A1F4D1A60DA6842F08002DA60DA688E
:1002B00042F08002DA60DA6842F04002DA60DA681E
:1002C00042F02002DA60DA6842F01002DA60DA689E
:1002D00042F00802DA60DA6842F00402DA6000F004
:1002E0006DFA0C2000F0E1F900220E48114600F0F2
:1002F0004DFA0134284600220121E4B200F046FA0A
:1003000020460B22012100F0ECF94FF47A7002F044
:100310001DF8EEE7001002400008014000333333BF
:1003200093350008803500081F4B20499A6942F038
:1003300004029A610A6822F0F0020A609A6942F4A3
:1003400000729A615A6842F400425A60A3F56C4305
:100350005A6842F020025A600022DA620A225A6386
:100360009A6842F460229A609A6842F480129A6015
:100370009A6842F002029A609A6842F001029A601A
:100380009A6842F008029A609A681107FCD49A6849
:1003900042F004029A60064B9A685207FCD49A68AD
:1003A00042F480029A607047001002400008014049
:1003B0000024014012221B4B1A60A3F580531A68D7
:1003C00042F480321A601A689103FCD5DA6A42F06E
:1003D0004002DA62DA6A42F4C062DA621A6842F013
:1003E00080621A60DA6A42F48032DA62DA6A42F0D3
:1003F0000402DA625A6842F480325A605A6842F45F
:10040000E0125A605A6842F480625A601A6842F0F8
:1004100080721A601A689201FCD55A6842F0020292
:100420005A6070470020024082B00190019B094A47
:10043000019B0BB902B07047938A9BB243F0010352
:100440009382938C9BB2042BFBD9019B013B0193BC
:10045000EEE700BF00040040084AD36943F00203FE
:10046000D3610023A2F50332138040F2CF2393859A
:1004700013889BB243F001031380704700100240C1
:1004800001234109034A00F01F00834042F8213054
:10049000704700BF00E100E001224309034900F07A
:1004A0001F008240203341F82320704700E100E024
:1004B00010B5012186B0164C44F2040000F064FB34
:1004C000144B204601A9019300F04BFC4FF48063CC
:1004D000ADF80430042320460DEB03018DF80730FE
:1004E00000F03FFC00234FF4E132CDE902234FF44A
:1004F000402204F54054204602A90492ADF814307D
:1005000000F052FD0121204600F0C0FD06B010BDF4
:10051000000801400002031838B5084D441E14F8C5
:10052000011F01B938BD284600F017FE40212846BA
:1005300000F086FE0028F9D0F1E700BF0038014046
:100540007FB5FFF7B5FF00230E4D0F4C0F4E019303
:100550006422286801A901F0C3F8C0B270B1304626
:10056000FFF7DAFF102202A9019802F0DBFE02A8D1
:10057000FFF7D2FF642001F0E9FEE9E72046FFF72C
:10058000CBFFE5E708000020AD3500089E350008E8
:1005900007B5002204210520002400F07EFF042579
:1005A000134B1860FFF706FF1248234664221249D6
:1005B000CDE9005401F02CFB234664220F49CDE91C
:1005C00000540F4801F024FB234664220D49CDE975
:1005D00000540D4801F01CFB234664220B49CDE971
:1005E00000540B4801F014FB01F060FDFEE700BF72
:1005F0000800002091020008D8350008E135000805
:1006000061020008E835000841050008EE350008E1
:100610003902000810B51D4C10F0100FE36814BF2C
:1006200043F0200323F02003E360E36882064CBF1D
:1006300043F0100323F01003E360E36842064CBF6D
:1006400043F0080323F00803E360E368C00914BF24
:1006500043F0040323F00403E360E36891B143F043
:100660008003E360E368782043F04003E36001F037
:100670006DFEE368782023F04003E360BDE810409E
:1006800001F064BE23F08003EBE700BF00080140E7
:1006900010B504460121FFF7BDFF20010121BDE88F
:1006A000104000F0F000FFF7B5BF10B50446002180
:1006B000FFF7B0FF20010021BDE8104000F0F0007E
:1006C000FFF7A8BF10B5044641B942F08000FFF71C
:1006D000ECFF2046BDE81040FFF7DABF42F0C00053
:1006E000F5E72DE9F04742F2107A4FF47A74B0FB47
:1006F000FAF3B0FBF4F90AFB130A04FB1909BAFB7D
:10070000F4F76424B0FBF4F8B9FBF4F604FB180822
:100710000A24B0FBF4FCB8FBF4F504FB1C00C4B2E3
:1007200013F0FF00FFB2F6B2EDB211D12020FFF7B7
:10073000C9FFBAF57A7F0FD22020FFF7A9FFB9F1E0
:10074000630F0FD906F13000C0B2FFF7A1FF0FE031
:100750003030C0B2FFF7B6FF07F13000C0B2FFF78C
:1007600097FFEFE72020FFF793FFB8F1090F03D9B8
:1007700005F13000C0B200E02020FFF789FF04F14E
:100780003000C0B2BDE8F047FFF782BF70B50E463B
:100790001446451E15F8010F00B970BD22463146BA
:1007A0000134FFF78FFFE4B2F4E708B50220FFF74A
:1007B0007CFFBDE808400120FFF777BF08B5302077
:1007C00001F0C4FD00213020FFF724FF052001F0D7
:1007D000BDFD00213020FFF71DFF962001F0B6FD82
:1007E00000213020FFF716FF00212020FFF712FF25
:1007F0002820FFF75AFF0F20FFF757FF0120FFF7D0
:1008000054FF0620FFF751FFBDE80840FFF7CDBFBA
:10081000374B82B01A6842F001021A605968354AB3
:100820000A405A601A6822F0847222F480321A60F8
:100830001A6822F480221A605A6822F4FE025A6072
:100840004FF41F029A600022009201921A6842F44B
:1008500080321A601A6802F400320192009A013262
:100860000092019A1AB9009AB2F5A06FF2D11A68F3
:1008700012F4003218BF01220192019A012A30D1EC
:100880001D4A116841F010011160116821F0030147
:100890001160116841F0020111605A685A605A688B
:1008A0005A605A6842F480625A605A6822F47C1294
:1008B0005A605A6842F4E8125A601A6842F080722C
:1008C0001A601A689201FCD55A6822F003025A6035
:1008D0005A6842F002025A605A6802F00C02082A72
:1008E000FAD14FF00062054B9A6002B0704700BF2A
:1008F000001002400000FFF80020024000ED00E080
:100900000F4A536803F00C03082B17D15368516842
:10091000C3F38343C80303F102030AD409494B43D9
:1009200052680949C2F303128A5CD340074A136034
:10093000704751688903F1D40549F0E7044BEFE7AC
:100940000010024000093D00FF35000800000020B3
:1009500000127A000D4B1A6842F001021A605968C1
:100960000B4A0A405A601A6822F0847222F48032DC
:100970001A601A6822F480221A605A6822F4FE0271
:100980005A604FF41F029A60704700BF0010024087
:100990000000FFF80C4BB0F5803F1A6822F480325B
:1009A0001A601A6822F480221A6003D0B0F5802FF2
:1009B00005D070471A6842F480321A6070471A688E
:1009C00042F4A022F9E700BF00100240034A136876
:1009D00023F0F80343EAC00313607047001002409D
:1009E000014B1860704700BF00004242034A536841
:1009F00023F47C130B4318435060704700100240EF
:100A0000014B1866704700BF00004242034A53681A
:100A100023F0030303435360704700BF00100240FC
:100A2000024B586800F00C00704700BF00100240F5
:100A3000034A536823F0F00303435360704700BF39
:100A400000100240034A536823F4E06303435360F9
:100A5000704700BF00100240034A536823F46053FC
:100A600043EAC0035360704700100240044B5A7AB7
:100A700011B102435A72704722EA0002FAE700BF3E
:100A800000100240014BC3F8D800704700004242FA
:100A9000034A536823F4404303435360704700BF45
:100AA000001002400022084B012883F8202083F820
:100AB000202002D0042803D0704783F8200070471C
:100AC000052283F82020704700100240014BC3F834
:100AD0008004704700004242024A136A03431362D3
:100AE000704700BF00100240014BC3F83C04704740
:100AF000000042421A4A10B5536803F00C03082B59
:100B00002CD153685168C3F38343CC0303F1020330
:100B10001FD414494B43036054681349C4F30314AE
:100B20000C5DE34043605468C4F302240C5D23FA77
:100B300004F484605468C4F3C2240C5DE340C360D1
:100B40005268C2F3813211440A7CB3FBF2F30361B1
:100B500010BD51688903DCD40449DBE7034BDAE7B5
:100B60000010024000093D000F36000800127A0014
:100B7000044B5A6911B102435A61704722EA0002DC
:100B8000FAE700BF00100240044B9A6911B102431A
:100B90009A61704722EA0002FAE700BF00100240A3
:100BA000044BDA6911B10243DA61704722EA0002AC
:100BB000FAE700BF00100240044BDA6811B10243AB
:100BC000DA60704722EA0002FAE700BF0010024034
:100BD000044B1A6911B102431A61704722EA0002FC
:100BE000FAE700BF00100240014BC3F84004704711
:100BF00000004242014BD864704700BF00004242EF
:100C0000014BD871704700BF001002404209012A11
:100C1000074B07D11B6800F01F0023FA00F000F01B
:100C200001007047022A0CBF1B6A5B6AF3E700BF32
:100C300000100240002307B501933120FFF7E6FFC3
:100C4000019B01330193019BB3F5A06F01D00028F4
:100C5000F3D03120FFF7DAFF003818BF012003B0CE
:100C60005DF804FB024A536A43F080735362704795
:100C700000100240034B9B68184214BF0120002063
:100C8000704700BF00100240014B9872704700BFD0
:100C90000010024008B5264B984209D101210420DA
:100CA000FFF78AFF00210420BDE80840FFF784BF5A
:100CB000204B984206D101210820FFF77DFF00213B
:100CC0000820F1E71C4B984206D101211020FFF7C4
:100CD00073FF00211020E7E7184B984206D101214D
:100CE0002020FFF769FF00212020DDE7144B984208
:100CF00006D101214020FFF75FFF00214020D3E70C
:100D0000104B984206D101218020FFF755FF0021AA
:100D10008020C9E70C4B984208D101214FF4807024
:100D2000FFF74AFF00214FF48070BDE708BD00BF08
:100D300000080140000C0140001001400014014077
:100D400000180140001C014000200140012108B5AD
:100D50000846FFF731FFBDE8084000210120FFF7FA
:100D60002BBFF0B5CB780E88DA0648BF8A7803F03F
:100D70000F0548BF15430A78C2B1002101274FF083
:100D80000F0C026807FA01F434EA060E0AD1282B88
:100D900029D144618C000CFA04FE22EA0E0205FA05
:100DA00004F4224301310829ECD10260FF2E19D945
:100DB00000214FF0010C426801F108040CFA04F420
:100DC00034EA06070AD1282B11D144610F278C0081
:100DD000A74022EA070205FA04F422430131082958
:100DE000EAD14260F0BD482BD4D10461D2E7482B50
:100DF00008BF0461EAE74FF6FF73038040F2024345
:100E0000438070478368194214BF01200020704757
:100E1000806880B27047C368194214BF0120002067
:100E20007047C06880B27047016170474161704788
:100E30000AB10161704741617047C160704741F478
:100E40008033836181618361836983697047054A67
:100E5000136823F07F031B041B0C0B4343EA0013AE
:100E60001360704700000140014BD861704700BF1C
:100E7000000020420028164A30B500F44015B4BFE7
:100E8000D3695368B5F5401F84B210D1556823F07B
:100E9000706325F07065556019B1420D12019440E0
:100EA00023430B4A0028B4BFD361536030BDC20254
:100EB0004DBF0322420D1201C0F303454CBFAA40AF
:100EC00004FA02F223EA020343F07063E4E700BF8E
:100ED0000000014010B50F2401F0030301F0FC01F4
:100EE00001F1804101F580318A689B009C4022EA33
:100EF00004028A608A6898401043886010BD024BE3
:100F0000C3F8DC00704700BF0000204208B5214B49
:100F100098420BD101214FF48040FFF74DFEBDE810
:100F2000084000214FF48040FFF746BE1A4B98421C
:100F30000BD101214FF40030FFF74AFE00214FF49E
:100F40000030BDE80840FFF743BE144B984208D17B
:100F500001214FF48020FFF73BFE00214FF4802059
:100F6000EFE70F4B984208D101214FF40020FFF723
:100F70002FFE00214FF40020E3E70A4B984208D1EE
:100F800001214FF48010FFF723FE00214FF4801061
:100F9000D7E708BD00380140004400400048004049
:100FA000004C00400050004030B50446038ACA8817
:100FB0009BB223F440531343038283898A8823F42A
:100FC000B05323F00C031B041B0C13430A8987B096
:100FD00013434A890D4613439BB28381838A8A89CE
:100FE0009BB223F440731343838201A8FFF782FD71
:100FF000DDE9033214498C4208BF13461922A18946
:1010000053432A680D044CBF520092006421B3FB85
:10101000F2F3B3FBF1F001FB10330201A0890004ED
:101020004BBFDB001B01323332334BBFB3FBF1F359
:10103000B3FBF1F303F0070303F00F0313439BB279
:10104000238107B030BD00BF003801404FF4165275
:101050000023C0E900234FF440228381826070475F
:101060000B8810B54C88028A23438C88C98892B2B9
:1010700023430B4322F4706213439BB2038210BDDF
:101080000023038043808380C3807047838921B11C
:101090009BB243F400538381704723F400531B0435
:1010A0001B0CF8E7012310B5C1F34214012C01F029
:1010B0001F0103FA01F305D10C3042B1026813435A
:1010C000036010BD022C0CBF10301430F5E702682D
:1010D00022EA0303F4E7838A9BB212B119438182A7
:1010E000704723EA0101FAE7038A23F00F031B0488
:1010F0001B0C0382038A9BB21943018270478389C8
:1011000023F400631B041B0C838183899BB20B4374
:1011100083817047838921B19BB243F002038381AD
:10112000704723F002031B041B0CF8E7038A23F02B
:1011300020031B041B0C0382038A9BB20B43038214
:101140007047038A21B19BB243F480430382704706
:1011500023F480431B041B0CF8E7C1F308018180D2
:1011600070478088C0F30800704783899BB243F0C2
:10117000010383817047038BDBB20383038B9BB234
:1011800043EA012303837047038B03F47F43038304
:10119000038B9BB2194301837047838A21B19BB2B1
:1011A00043F020038382704723F020031B041B0CB1
:1011B000F8E7838A21B19BB243F010038382704722
:1011C00023F010031B041B0CF8E7838A21B19BB2A8
:1011D00043F008038382704723F008031B041B0CB1
:1011E000F8E7838931B16FEA43436FEA53439BB217
:1011F00083817047C3F30E03FAE7838A21B19BB260
:1012000043F400638382704723F400631B041B0CC8
:10121000F8E7838A23F004031B041B0C8382838A70
:101220009BB20B4383827047838A21B19BB243F008
:1012300002038382704723F002031B041B0CF8E7B0
:101240000388194214BF012000207047C94389B2A6
:101250000180704703460120C1F3421210B5012AF4
:1012600001F01F0400FA04F00DD19A8992B21040E7
:101270001A8892B230B10123090A8B401A4214BF76
:101280000120002010BD022A0CBF1A8A9A8AEDE7BD
:101290000123090A8B40DB439BB20380704700BFE8
:1012A0004FF0FF3200F10803C0E9022343600361FD
:1012B00000230360704700230361704743689A6806
:1012C0004B608A6051609960036808610133036074
:1012D000704730B50C68631C0AD103695A684A60CC
:1012E00091608B605960036808610133036030BD11
:1012F00000F10802134652681568A542FAD9EDE7D5
:101300000369D0E901128A6051605968814208BFBF
:101310005A60002202611A68013A1A601868704720
:1013200010B5044601F0BFFEA46B01F0CBFEB4FA89
:1013300084F0400910BD70B51646026C0446856BFA
:1013400042B906689EB9806801F08EFAA660013540
:10135000A56370BD6EB9406801F0FCFF6368226C44
:101360001344A2686360934224BF23686360002033
:10137000EDE7C06801F0EEFF226CE36851429B1A72
:101380002268E36093423EBFA3685B18E360022ECD
:10139000EDD10DB1013DEAE72846D8E703461A6CC6
:1013A000084610B462B1DC68996814448C4228BFC6
:1013B0001968DC6028BFD960D96810BC01F0CABFC9
:1013C00010BC704770B5044601F06DFE94F84550AE
:1013D00004F124066DB2002D01DD636AB3B9FF2369
:1013E00084F8453001F06EFE01F05DFE94F8445043
:1013F00004F110066DB2002D01DD23697BB9FF23D6
:1014000084F84430BDE8704001F05CBE304601F025
:1014100069F808B101F0FAF8013D6DB2DBE730463A
:1014200001F060F808B101F0F1F8013D6DB2E2E7BA
:1014300038B504460D4601F036FED4E90F314B4372
:101440002268D0185B1AA060626000201A44FF2353
:10145000A063E26084F8443084F84530A5B923697C
:1014600073B104F1100001F03DF848B14FF0E023F2
:101470004FF08052C3F8042DBFF34F8FBFF36F8F2F
:1014800001F020FE012038BD04F11000FFF708FF35
:1014900004F12400FFF704FFF2E7F8B506464843DD
:1014A00050300D46174601F0A3FE044658B165B111
:1014B00000F1500301212046C4E90F652360FFF7C6
:1014C000B7FF84F84C702046F8BD0346F2E710B52C
:1014D00002220C460021FFF7E0FF00B1846310BD3B
:1014E0002DE9FF41002704460E461D46B8460192ED
:1014F00001F0D9FDA26BE36B9A421BD22A4631461A
:101500002046FFF718FF636A1BB104F1240000F0C6
:10151000E9FF48B14FF0E0234FF08052C3F8042DAB
:10152000BFF34F8FBFF36F8F01F0CCFD012004B0EC
:10153000BDE8F081022DE1D0019B1BB901F0C2FD95
:101540000020F4E717B902A801F030F801F0BAFD65
:1015500000F0EAFD01F0A7FD94F84430FF2B08BF2E
:1015600084F8448094F84530FF2B08BF84F8458008
:1015700001F0A8FD01A902A801F022F838BB01F092
:1015800092FDA26BE36B9A420ED101F09BFD019993
:1015900004F1100000F06CFF2046FFF713FF00F08D
:1015A0004DFE48B10127A3E701F08CFD2046FFF76F
:1015B00009FF00F043FEF5E74FF0E0234FF08052C3
:1015C000C3F8042DBFF34F8FBFF36F8FEAE72046B8
:1015D000FFF7F8FE00F032FEB2E7024610B5002138
:1015E0000120FFF75AFF044638B100231A46194676
:1015F00083600360C360FFF773FF204610BD38B5FA
:101600008568044601F0CCF885420BD1E368013BC4
:10161000E3600BB1012038BD1A4619462046FFF79A
:101620005FFFF7E70020F6E7F8B5164604461A46CE
:10163000EFF311874FF0100383F31188BFF36F8F1F
:10164000BFF34F8F806BE36B984201D3022A1AD10C
:1016500094F8455020466DB2FFF76DFE6B1C0DD11E
:10166000636A3BB104F1240000F03CFF10B10EB1FD
:1016700001233360012087F31188F8BD01356DB275
:1016800084F84550F6E70020F5E738B50C46EFF34F
:1016900011854FF0100383F31188BFF36F8FBFF3F1
:1016A0004F8F826BC36B934218D990F8451001326B
:1016B000FF294BB282630CD1436A33B1243000F06E
:1016C00011FF10B10CB101232360012085F31188B3
:1016D00038BD01335BB280F84530F6E70020F5E70E
:1016E0002DE9FF41002704460E46B846019201F05D
:1016F000DAFCA56BE5B131462046013DFFF74EFE11
:10170000A563236973B104F1100000F0EBFE48B14A
:101710004FF0E0234FF08052C3F8042DBFF34F8FFA
:10172000BFF36F8F01F0CEFC012004B0BDE8F08163
:10173000019B1BB901F0C6FC0020F6E717B902A80F
:1017400000F034FF01F0BEFC00F0EEFC01F0ABFC59
:1017500094F84430FF2B08BF84F8448094F8453057
:10176000FF2B08BF84F8458001F0ACFC01A902A85A
:1017700000F026FF00BB2046FFF7D2FDB0B1019973
:1017800004F1240000F074FE2046FFF71BFE00F079
:1017900055FD48B94FF0E0234FF08052C3F8042DB7
:1017A000BFF34F8FBFF36F8F0127A0E72046FFF7EE
:1017B00009FE00F043FDF7E72046FFF703FE00F0C7
:1017C0003DFD2046FFF7ACFD0028EDD0B4E7F0B5B5
:1017D000002504462F462E4685B0019101F063FC9A
:1017E000A36BE3B1013BA363236813B901F0C2F813
:1017F000A060236973B104F1100000F073FE48B1DA
:101800004FF0E0234FF08052C3F8042DBFF34F8F09
:10181000BFF36F8F01F056FC012005B0F0BD019BB6
:101820001BB901F04FFC0020F7E717B902A800F040
:10183000BDFE01F047FC00F077FC01F034FC94F8A9
:101840004430FF2B08BF84F8446094F84530FF2BE8
:1018500008BF84F8456001F035FC01A902A800F03A
:10186000AFFE50BB2046FFF75BFD00B323683BB9DA
:1018700001F019FCA06800F0A9FF054601F022FC68
:10188000019904F1240000F0F3FD2046FFF79AFDD2
:1018900000F0D4FC48B94FF0E0234FF08052C3F879
:1018A000042DBFF34F8FBFF36F8F012796E72046BC
:1018B000FFF788FD00F0C2FCF7E72046FFF782FD46
:1018C00000F0BCFC2046FFF72BFD0028EDD0002DDA
:1018D000A9D001F0E8FB616A19B1236B1968C1F165
:1018E0000501A06800F0F8FF9BE770B58668044624
:1018F0000D4600F055FF864204D10120E368013314
:10190000E36070BD29462046FFF761FF0028F8D04C
:10191000E3680133E360F4E7F0B5002604460D46C2
:10192000374685B0019201F0BEFBA36BDBB12946BF
:101930002046E668FFF732FD636AE66073B104F1A2
:10194000240000F0CFFD48B14FF0E0234FF080526B
:10195000C3F8042DBFF34F8FBFF36F8F01F0B2FBBD
:10196000012005B0F0BD019B1BB901F0ABFB0020CD
:10197000F7E716B902A800F019FE01F0A3FB00F08A
:10198000D3FB01F090FB94F84430FF2B08BF84F8A0
:10199000447094F84530FF2B08BF84F8457001F07F
:1019A00091FB01A902A800F00BFE00BB2046FFF747
:1019B000B7FCB0B1019904F1240000F059FD2046B4
:1019C000FFF700FD00F03AFC48B94FF0E0234FF07C
:1019D0008052C3F8042DBFF34F8FBFF36F8F0126E2
:1019E000A1E72046FFF7EEFC00F028FCF7E72046D1
:1019F000FFF7E8FC00F022FC2046FFF791FC0028EE
:101A0000EDD0B4E72DE9F04105469046EFF311879C
:101A10004FF0100383F31188BFF36F8FBFF34F8F25
:101A2000846BFCB190F84460013C76B2FFF7B6FCE1
:101A3000731CAC6311D12B6953B105F1100000F098
:101A400051FD28B1B8F1000F02D00123C8F80030D1
:101A5000012087F31188BDE8F081013676B285F860
:101A60004460F5E72046F4E770B50446EFF31185CE
:101A70004FF0100383F31188BFF36F8FBFF34F8FC5
:101A8000836B3BB1C668FFF789FC0120E66085F3F4
:101A9000118870BD1846FAE710B5044601F003FB43
:101AA000A46B01F00FFB204610BD10B5044601F0F9
:101AB000FAFAA36BE46BE41A01F004FB204610BDB4
:101AC000806B704701F0FEBB806C7047816470478B
:101AD00090F84C007047806BB0FA80F04009704776
:101AE000836BC06BC31A58425841704770B50446A7
:101AF0000D46164601F0D7FA94F84430FF2B04BF88
:101B0000002384F8443094F84530FF2B04BF0023B1
:101B100084F8453001F0D6FAA36B2BB9324629463A
:101B200004F1240000F0C8FC2046BDE8704049E400
:101B3000F8B5184C0646256860680F460430FFF774
:101B4000DFFB38B96268A368D16A01228A4023EAC0
:101B50000203A360731C07D137B161680E480431DA
:101B6000BDE8F840FFF7AABB6368AD195D6006D316
:101B7000206A6168BDE8F8400431FFF7AABB606ADB
:101B800061680431FFF7A5FBA36AAB4288BFA56279
:101B9000F8BD00BF0C00002018000020064B5A6A58
:101BA00012681AB94FF0FF329A6270475A6AD268C7
:101BB000D2685268F8E700BF0C00002080B54FF0F3
:101BC000E0264FF08057114C636C4BB9A36C012B8E
:101BD000FAD9C6F8047DBFF34F8FBFF36F8FF3E7D9
:101BE00001F061FAA36BDD68281DFFF789FB236C08
:101BF000013B2364636C013B636401F063FA286B6F
:101C000001F060FB284601F05DFBDDE70C000020E1
:101C10002DE9F84F9600074630460D469846DDF808
:101C20002C9001F0E5FA824618B94FF0FF30BDE87C
:101C3000F88F5C2001F0DCFA0446002800F0AA804E
:101C40003246C0F830A0A521504601F0F9FB236BC5
:101C5000043E1E4426F00706002D00F08D806B1E0A
:101C600004F133020F3513F8011F02F8011F09B107
:101C7000AB42F8D1002384F843300A9D4FF0000BAB
:101C8000042D28BF042504F1040A5046E562E564EA
:101C9000C4F850B0FFF70FFBC5F1050504F11800BB
:101CA000FFF709FBC4F854B0424639463046246178
:101CB000A561646284F858B001F0CFF92060B9F1F1
:101CC000000F01D0C9F80040344D01F0ECF92B6C45
:101CD00005F1480701332B646E68002E4FD16C600C
:101CE0002B6C012B20D1B84640460136FFF7D8FABD
:101CF000052E08F11408F7D1294E304606F11408D4
:101D0000FFF7CEFA4046FFF7CBFA06F12800FFF7BF
:101D1000C7FAA6F18000FFF7C3FAA6F1A000FFF70B
:101D2000BFFA6E62C5F82080D5F8EC30142001337C
:101D3000C5F8EC3063640123E26AA96893400B4361
:101D400000FB02705146AB60FFF7B8FA01F0BAF938
:101D5000D5F8E83073B16B68DA6AE36A9A4209D25F
:101D60004FF0E0234FF08052C3F8042DBFF34F8FA4
:101D7000BFF36F8F01205AE784F834507DE7D5F820
:101D8000E820E36A002ACFD16A68D26A9A4298BFF3
:101D90006C60C9E7504601F095FA46E70C00002058
:101DA000B800002070B50546244C01F07CF905B957
:101DB00065682E1D3046FFF7A3FA58B91423E96A67
:101DC00003FB01439B6C2BB90122A3688A4023EAE1
:101DD0000203A360AB6A1BB105F11800FFF790FA8C
:101DE000D4F8EC300133C4F8EC306368AB4219D15D
:101DF00031461348FFF762FA636C0133636401F004
:101E000061F9D4F8E83063B16368AB4209D14FF0AF
:101E1000E0234FF08052C3F8042DBFF34F8FBFF380
:101E20006F8F70BD236C286B013B236401F04AFA6D
:101E3000284601F047FAFFF7B1FEE0E70C0000206A
:101E4000380000202DE9F041164C054663688342B6
:101E500021D001F028F9D4F824806E69276A01F0B6
:101E600031F9464519D0BE4217D004F10C039E4209
:101E700009D1AB6A8BB995F85830012B0CBF022001
:101E80000320BDE8F0812C34A64208D0002E0CBF00
:101E900004200120F5E70020F3E70220F1E7042009
:101EA000EFE700BF0C00002010B5044601F0FBF87E
:101EB0000CB9034B5C68E46A01F004F9204610BDDC
:101EC0000C000020EFF311834FF0100282F3118811
:101ED000BFF36F8FBFF34F8F08B9034A5068C06AD2
:101EE00083F31188704700BF0C00002004292DE9FE
:101EF000F84328BF042104460D4601F0D4F80CB97C
:101F0000294B5C68E36C9D4242D0274F44D97A68E4
:101F1000A24246D07A68D66AAE428CBF002601261D
:101F2000D4F82C90E5644B45A36908BFE562002B0B
:101F30004FF01403A4BFC5F10505A5611B4D6269EF
:101F400003FB09539A4218D104F104084046FFF7F5
:101F5000D7F930B90122BB6802FA09F223EA020379
:101F6000BB6001231420E26AB96893400B4300FB75
:101F700002504146BB60FFF7A1F94EB14FF0E0239C
:101F80004FF08052C3F8042DBFF34F8FBFF36F8F14
:101F9000BDE8F84301F096B87E68321B56425641C0
:101FA000BEE70026BCE700BF0C0000205400002064
:101FB00070B51C4D04466B68834232D088B301F083
:101FC00072F8626905F10C039A4226D1A36A05F101
:101FD000D402934221D003BB261D3046FFF790F96F
:101FE00001231420E26AA96893400B43AB6005F11A
:101FF000480300FB02303146FFF760F96B68E26A84
:10200000DB6A9A4209D34FF0E0234FF08052C3F8C5
:10201000042DBFF34F8FBFF36F8FBDE8704001F009
:1020200051B870BD0C0000202DE9F0410546EFF3DA
:1020300011874FF0100383F31188BFF36F8FBFF345
:102040004F8F194C426904F10C039A422AD1836ADA
:1020500004F1D400834225D023BBD4F8F030EBB98F
:102060006368EE6ADB6A05F104089E42404634BFAD
:1020700000260126FFF744F901231420EA6AA1682B
:1020800093400B43A3604834414600FB0240FFF7F6
:1020900015F987F311883046BDE8F08105F1180184
:1020A000FFF70CF90026F4E70C00002037B50025F7
:1020B000124C782204F1F403019311492B46114884
:1020C0000095FFF7A5FD012816D100F011FE0128AB
:1020D00012D14FF0100383F31188BFF36F8FBFF35A
:1020E0004F8F4FF0FF33A362C4F8E800256003B0C0
:1020F000BDE8304001F037B803B030BD0C0000201F
:10210000F2350008BD1B00084FF0100383F311885F
:10211000BFF36F8FBFF34F8F0022024BC3F8E8204D
:1021200000F0C0BF0C000020034AD2F8F0300133A9
:10213000C2F8F030704700BF0C000020014B186857
:10214000704700BF0C000020014B1868704700BFAB
:102150000C000020014B186C704700BF0C000020E1
:1021600008B9024B58683430704700BF0C0000209B
:102170002DE9F84F2F4CD4F8F030002B53D12768BD
:102180000137276057B9636A226A62622362D4F812
:10219000F8300133C4F8F830FFF700FDA36A0025DA
:1021A000BB4210D914226368DB6A02FB03439B6CB9
:1021B000022B28BF0125D4F80031002B0CBF284684
:1021C0000120BDE8F88F4FF0010B4FF0140ADFF843
:1021D0006890636A1B681BB94FF0FF33A362E1E7A5
:1021E000636ADB68DE6873689F42F7D306F1040810
:1021F0004046FFF785F8B36A1BB106F11800FFF7F8
:102200007FF8F06AA2680BFA00F3134341460AFB19
:102210000090A360FFF752F86368F26ADB6A9A42A3
:1022200028BF0125D5E7D4F8FC3000250133C4F8D8
:10223000FC30C0E70C000020540000202DE9F843DA
:102240002D4C00F030FFD4F8F030013BC4F8F030F2
:10225000D4F8F0502DB1002400F034FF2046BDE842
:10226000F883236C002BF6D001264FF0140804F1FC
:1022700048071DE0D4F8E030DD6805F1040905F1F8
:102280001800FFF73DF84846FFF73AF8E86AA268F9
:1022900006FA00F31343494608FB0070A360FFF7FA
:1022A0000DF86368EA6ADB6A9A4201D3C4F80061F8
:1022B000D4F8D430002BDDD10DB1FFF76FFCD4F88A
:1022C000FC504DB10126FFF753FF08B1C4F800617F
:1022D000013DF8D1C4F8FC50D4F80031002BBAD03D
:1022E0004FF0E0234FF08052C3F8042DBFF34F8F1F
:1022F000BFF36F8F0124AFE70C00002010B5FFF78C
:1023000013FF114B04681A6863182CBF01210021C8
:1023100094420FD979B90360FFF790FF48B94FF0A5
:10232000E0234FF08052C3F8042DBFF34F8FBFF36B
:102330006F8F10BD09B99A42EDD203600021981A3F
:10234000FFF7F6FBE8E700BF0C00002008B550B926
:102350004FF0E0234FF08052C3F8042DBFF34F8FAE
:10236000BFF36F8F08BD0021FFF7DEFEFFF7E0FB34
:10237000FFF764FF0028EBD0F4E7124A30B5D2F83B
:10238000F0301BB10123C2F8003130BDC2F800317A
:102390009368B3FA83F31425DBB2C3F11F0305FB83
:1023A00003F150180146C46C5031646805FB0323E7
:1023B0008C4208BF6168C46408BFC164DB6CDB6821
:1023C0005360E2E70C00002070B50446264D00F093
:1023D0006AFE04B96C68261D3046FEF791FF58B9B5
:1023E0001423E16A03FB01539B6C2BB90122AB68F8
:1023F0008A4023EA0203AB60A36A1BB104F1180010
:10240000FEF77EFF31461948FEF758FF94F8583022
:10241000012B04BF002384F8583000F053FED5F898
:10242000E8302BB100F03FFEFFF7B8FB00F04AFEAA
:102430006B68A3420CD1D5F8E83053B14FF0E023DC
:102440004FF08052C3F8042DBFF34F8FBFF36F8F4F
:1024500070BDE9682A6C914201D16B60F8E7BDE874
:102460007040FFF78ABF00BF0C000020180000205A
:1024700010B50C46054B59681831FEF72AFF204667
:10248000BDE810400121FFF753BB00BF0C00002046
:1024900010B51446074B41F000415A6891615968E4
:1024A0001831FEF70BFF2046BDE810400121FFF771
:1024B0003FBB00BF0C00002038B514460D46084B4A
:1024C00059681831FEF7FAFE002C214608BF28464D
:1024D000BDE8384018BF4FF0FF30FFF729BB00BF01
:1024E0000C000020C36870B5DD68144C05F11806B7
:1024F0003046FEF705FFD4F8F030DBB92E1D30462C
:10250000FEF7FEFE01231420EA6AA16893400B4304
:102510003146A36004F1480300FB0230FEF7CEFE13
:102520006368EA6ADB6A9A428ABF01200020C4F825
:10253000000170BD314604F1D400EFE70C0000202B
:10254000F8B5C56841F00041012601602F1DFEF776
:10255000D7FE3846FEF7D4FE14200B4CEA6AA16879
:1025600006FA02F30B43A36004F1480300FB0230B8
:102570003946FEF7A3FE6368EA6ADB6A9A4288BFBF
:10258000C4F80061F8BD00BF0C00002010B504467F
:1025900000F089FD044BD3F8F8201B6822606360CB
:1025A000BDE8104000F08EBD0C000020034BD3F8B6
:1025B000F8201B6802604360704700BF0C000020D9
:1025C00070B50C46054600F06EFD23680E485A1C97
:1025D000016810D0D0F8F8002E686A68864201D0F1
:1025E0008A420FD9881A83420AD95B1A13442846B3
:1025F0002360FFF7DBFF002400F064FD204670BD80
:10260000002323600124F7E70C0000200122024B85
:10261000C3F80021704700BF0C00002000B1806C9F
:10262000704700B18164704770B50C461646054688
:1026300008B91A4A556805F134026260EA6A052B46
:1026400022612A6B2560E2616A6CA260EA6C6261B9
:102650004FF00002A2611AD010494968A9420AD17C
:10266000227336B10022296B8B5CA52B14D0C2F3E8
:102670008F06268470BD032B2373F2D1FFF754FD20
:10268000AB6A0BB102232373FFF7D8FDE9E72846B5
:10269000FFF7D8FB2073E4E70132E5E70C000020E8
:1026A0002DE9F84F0D6806460C4617462DB3002558
:1026B0004FF0240B4B6801F108085B6843454B6001
:1026C00004BFCB684B604B68D3F80CA063680BFB6E
:1026D00005615B6801229845636008BFD8F8043043
:1026E00005F1010508BF63606368D3F80C903B46B1
:1026F0004846FFF799FFCA45E8D12846BDE8F88F5C
:102700002DE9F84FDFF88C909046FFF70DFDD9F8D2
:10271000403005468B423AD8052600244FF0140B72
:10272000242709F1480A013E07FB045001220BFB54
:1027300006A1FFF7B5FF0444002EF4D1022207FBE7
:102740000450D9F82410FFF7ABFF0444022207FB22
:102750000450D9F82010FFF7A3FF0444042207FB1C
:1027600004500D49FFF79CFF0444032207FB04506B
:102770000A49FFF795FFB8F1000F05D10444FFF7B0
:102780005DFD2046BDE8F88FC8F80060F6E700243C
:10279000F5E700BF0C0000203800002018000020E2
:1027A000014B5868704700BF0C000020064BD3F85F
:1027B000E82032B1D3F8F000B0FA80F040094000D0
:1027C00070470120704700BF0C0000202DE9F04148
:1027D0000446002835D0224DC36A6A68D26A934203
:1027E00035D2142682691F4F002AA8BF6A6806FBEB
:1027F0000373A2BFD26AC2F10502826142699A42A2
:1028000021D100F104084046FEF77AFD50B9E16A93
:1028100006FB0156B36C2BB90122AB688A4023EA50
:102820000203AB606B681420DA6A0123A968934045
:102830000B4300FB02704146E262AB60FEF73EFDD7
:102840000120BDE8F0816B68DB6AC362F8E76B6862
:10285000C06CDB6A98422CBF00200120F1E700BF6A
:102860000C0000205400002038B5044608B90020B0
:1028700038BD036DC16AC26C013B91420365F6D05D
:10288000002BF4D1051D2846FEF73AFD104B58B930
:102890001422E16A02FB0132926C2AB901209A6883
:1028A000884022EA00029A60E26CC2F10501A1614F
:1028B000E2620124996804FA02F008439860142047
:1028C000044B294600FB0230FEF7F8FC2046CFE718
:1028D0000C000020540000202DE9F041044600289F
:1028E00037D0C36C994238BF1946C36A8B4230D087
:1028F000026D012A2DD11426174D826905F1480772
:1029000006FB0373002A4269C162A4BFC1F105013D
:1029100081619A421DD100F104084046FEF7F0FCA7
:10292000E26A48B906FB0256B36C2BB90121AB68C9
:10293000914023EA0103AB6001231420A96893406E
:102940000B4300FB02704146AB60BDE8F041FEF76F
:10295000B5BCBDE8F08100BF0C000020044B5A68F4
:10296000596890695A68CB6AC3F10503936170474F
:102970000C000020044B5A681AB159680A6D0132E4
:102980000A655868704700BF0C00002070B5174CEE
:1029900006460D4600F087FB63685B6D8BB901212D
:1029A000636883F8581065B12846FFF7C1F84FF007
:1029B000E0234FF08052C3F8042DBFF34F8FBFF3D5
:1029C0006F8F00F07FFB00F06EFB63685D6D1DB1E3
:1029D00063684EB100225A650022636883F858206C
:1029E00000F070FB284670BD6A1EF4E70C00002062
:1029F0002DE9F0411F4C1E4680460F46154600F05B
:102A000052FB636893F85830022B16D0012162689C
:102A1000536D23EA08035365636883F8581066B161
:102A20003046FFF785F84FF0E0234FF08052C3F8AF
:102A3000042DBFF34F8FBFF36F8F00F043FB00F007
:102A400032FB15B163685B6D2B60636893F8583097
:102A5000022B03BF62680125536D002504BFBB43F1
:102A600053650022636883F8582000F02BFB28464A
:102A7000BDE8F0810C000020F8B51D4604460F4665
:102A8000164600F010FB0DB1636D2B60022394F825
:102A90005850721EEDB284F85830032A06D8DFE889
:102AA00002F0022D3230636D3B436365012D20D16E
:102AB000271D3846FEF724FC1420154EE36AB26841
:102AC0009D40154306F1480200FB03203946B560DE
:102AD000FEF7F4FB7368E26ADB6A9A4209D94FF0A9
:102AE000E0234FF08052C3F8042DBFF34F8FBFF3A4
:102AF0006F8F012400F0E6FA2046F8BD636D0133C4
:102B0000D3E7022D01D06765D0E70024F2E700BFCC
:102B10000C0000202DE9F843089F0446EFF31188CC
:102B20004FF0100080F31188BFF36F8FBFF34F8F0A
:102B30000BB1606D1860022394F85850013AEDB261
:102B400084F85830032A06D8DFE802F0022C312F2F
:102B5000636D0B436365012D1FD1194ED6F8F0301C
:102B60003BBB04F104094846FEF7CAFB1420494662
:102B7000E36AB2689D40154306F1480200FB03205A
:102B8000B560FEF79BFB7368E26ADB6A9A4204D980
:102B9000012307B13B60C6F80031012088F311889A
:102BA000BDE8F883636D0133D4E7022D06D061657B
:102BB000D1E704F1180106F1D400E2E70020EDE7C7
:102BC0000C0000202DE9F84304460F46EFF311886E
:102BD0004FF0100383F31188BFF36F8FBFF34F8F54
:102BE000022390F8582080F85830436D012A03F1F1
:102BF0000103D6B243651FD1144DD5F8F030FBB9AF
:102C000000F104094846FEF77BFB14204946E36ABD
:102C1000AA689E40164305F1480200FB0320AE60FF
:102C2000FEF74CFB6B68E26ADB6A9A4204D9012327
:102C300007B13B60C5F8003188F31188BDE8F8831F
:102C400000F1180105F1D400EAE700BF0C000020F4
:102C500010B5044608B9084B5C6800F024FA00205F
:102C600094F85830022B0ABF84F858000446012417
:102C700000F028FA204610BD0C000020914208B553
:102C8000416000610AD8D21A83699A420ED2084B79
:102C9000011D1868FEF71DFB002008BD9A4201D2F5
:102CA000994203D2024B011D5868F3E70120F4E773
:102CB00010010020F8B50D4C00F0F5F9A5688DB9AC
:102CC00004F10C07384604F12006FEF7E9FA304615
:102CD000FEF7E6FA2A460C210A20C4E90067FEF74F
:102CE000DCFBA060BDE8F84000F0ECB9100100206A
:102CF00007B5FFF7DFFF084B986848B134330193FD
:102D00000123F0220093054900230548FEF780FFC8
:102D100003B05DF804FB00BF10010020F735000888
:102D2000292E00082DE9F04180462C200F4615463B
:102D30001E4600F05DFA0446A0B1002380F828305A
:102D4000FFF7B8FF069BC4E90676C4F8008023624B
:102D5000201DFEF7B0FA2DB194F8283043F004039B
:102D600084F828302046BDE8F0817FB50E4C05463A
:102D7000A06816461A4678B10529CDE901160395D3
:102D80000CDCFFF713FD0023022814BF1A46089A33
:102D9000A06801A9FEF7A4FB04B070BD002301A93F
:102DA000FEF742FCF8E700BF100100202DE9F743D1
:102DB0000746FFF7C3F91B4D0646AB6B834220D88D
:102DC000002330463B60AE6303B0BDE8F083DB68B0
:102DD000DC68D3F8008004F104094846FEF790FA55
:102DE000236A2046984794F828305B0709D5A369E1
:102DF000434498450ED24946686863602461FEF7F3
:102E000068FA6B681A68002AE1D12A68C5E90032BD
:102E10000123D6E700234246194620460093FFF7D8
:102E2000A4FFEEE7100100202DE9F04300265A4DE3
:102E300087B06B68D3F80080B8F1000F4CD0002445
:102E4000DB68D3F80080FFF76FF903A8FFF7AEFF48
:102E5000039B8146002B60D1002C44D1404547D3D1
:102E6000FFF7ECF96B68DB68DF68381DFEF748FA9E
:102E700097F82830580731D5B96943464A4638464D
:102E80004144FFF7FBFE30B1234642462146384617
:102E90000094FFF76AFF38463B6A98470022A8680B
:102EA00003A9FEF71DFC0028C3D0039B002BF5DB14
:102EB000059C636913B1201DFEF722FA02A8FFF7F3
:102EC00075FF039B0246092BE8D8DFE803F02929A8
:102ED00029484F5D2929484F0124B4E723F0010315
:102EE00087F82830D7E72B681C68B4FA84F46409A3
:102EF0002246A868A8EB0901FEF7F8FDFFF79EF946
:102F00000028CBD14FF0E0234FF08052C3F8042DBE
:102F1000BFF34F8FBFF36F8FC0E7FFF78FF9BDE7A8
:102F200094F82830A16943F0010384F82830049B09
:102F300020461944FFF7A2FE0028AFD0236A20469E
:102F4000984794F828305907A8D50023A269049916
:102F500020460A4400961946FFF707FF9EE794F8BB
:102F6000283023F0010384F8283097E794F82830BC
:102F700043F0010384F8283004990346A161014419
:102F80002046FFF77BFE89E794F828309A07E8D4BB
:102F9000204600F097F981E710010020014B586BA3
:102FA000704700BF100100208069704738B50446A3
:102FB0000D4600F078F894F828303DB143F0040352
:102FC00084F82830BDE8384000F07CB803F0FB03FB
:102FD000F6E7406870470068704710B5044600F097
:102FE00062F894F8284000F06DF804F001042046DF
:102FF00010BD10B5044600F056F8E46900F062F820
:10300000204610BD38B504460D4600F04CF8E56189
:10301000BDE8384000F056B8406A704741627047DA
:10302000002382B001934FF0100383F31188BFF3A4
:103030006F8FBFF34F8F019B002BFCD002B0704706
:1030400058480068006880F3088862B661B6BFF32C
:103050004F8FBFF36F8F00DF00BF4FF0807340F8DA
:10306000043C054B21F0010140F8081C40F80C3CE1
:1030700040F8202C4038704721300008084B196870
:103080000868B0E8F00F80F30988BFF36F8F4FF046
:10309000000080F311884EF00D0E7047AFF30080F2
:1030A0001000002070474FF0100383F31188BFF326
:1030B0006F8FBFF34F8F024A13680133136070475D
:1030C00004000020034A1368013B13600BB983F32B
:1030D0001188704704000020EFF30980BFF36F8F61
:1030E0000F4B1A6820E9F00F10602DE908404FF0EF
:1030F000100080F31188FFF740F94FF0000080F3D3
:103100001188BDE8084019680868B0E8F00F80F33E
:103110000988BFF36F8F7047AFF30080AFF3008073
:103120001000002008B54FF0100383F31188BFF39F
:103130006F8FBFF34F8FFFF71BF828B14FF0E023DD
:103140004FF08052C3F8042D002383F3118808BD8B
:103150004FF0E02300221A619A6140F2CF225A61B7
:1031600007221A6170474FF0E02310B50024D3F80E
:10317000202D42F47002C3F8202DD3F8202D42F008
:103180007042C3F8202DFFF7E3FF054B1C60FFF7EB
:1031900057FFFFF7F2F8FFF743FF204610BD00BFCF
:1031A0000400002008ED00E0104B30B51D461A4623
:1031B0001B688342FBD354681119884201BF4168E0
:1031C000104609195160446801198B420BD1A96856
:1031D0008B4203D0596821444160196890420160D4
:1031E00018BF106030BD1946F8E700BF4C01002041
:1031F0002DE9F041314D0446FEF796FFAB68F3B977
:103200002F4A51071FBFD11D21F0070102F590423F
:10321000531A0CBF4FF490430A4600211344083B55
:1032200023F0070369602A60C3E90011991AC2E913
:103230000031AB604FF00043C5E903116B61D5F875
:10324000148018EA040F37D1002C2DD004F10803A4
:1032500062071CBF23F0070308336BB32F699F423B
:103260002AD32E68154872689A4201D2316801BB90
:10327000A968B14220D004683168D21A102A04F13A
:103280000804016004D9F01842607360FFF78CFFF6
:1032900000237268E968BF1A8F4248EA02022F6170
:1032A00038BFEF6072603360FEF7C8FF2046BDE8AC
:1032B000F08130460E46D6E70024F5E74C010020A9
:1032C0006401002038B50446D8B10E4D50F8043CD6
:1032D0006A69134215D050F8081C91B923EA020319
:1032E00040F8043CFEF720FF2A6954F8043CA4F19E
:1032F000080013442B61FFF757FFBDE83840FEF785
:103300009DBF38BD4C010020014B1869704700BFBC
:103310004C010020014BD868704700BF4C010020D1
:10332000704700BF931E222B10B50C460DD80A2AF9
:1033300004D0214600F0D6F8204610BD0028F8DA67
:103340002D23404201F8013BF4E700230B7018469F
:1033500010BD00BF844641EA000313F0030349D1C6
:10336000403A23D30B6803604B6843608B688360EB
:10337000CB68C3600B6903614B6943618B698361EF
:10338000CB69C3610B6A03624B6A43628B6A8362D7
:10339000CB6AC3620B6B03634B6B43638B6B8363BF
:1033A000CB6BC36340304031403ADBD230320BD379
:1033B0000B6803604B6843608B688360CB68C360B5
:1033C00010301031103AF3D20C3205D351F8043BCF
:1033D00040F8043B043AF9D2043208D0D2071CBFAB
:1033E00011F8013B00F8013B01D30B8803806046D4
:1033F000704700BF082A13D38B07B1D010F0030326
:10340000AED0C3F10403D21ADB071CBF11F8013B95
:1034100000F8013BA4D331F8023B20F8023B9FE7C0
:10342000043AD9D3013A11F8013B00F8013BF9D233
:103430000B7803704B7843708B78837060467047CD
:10344000830730B548D0541E002A3FD00346CAB285
:1034500001E0013C3AD303F8012B9D07F9D1032C7D
:103460002DD9CDB245EA05250F2C45EA054536D9BB
:10347000A4F1100222F00F0C03F1200EE6444FEAF3
:10348000121C03F1100242E9045542E902551032C0
:103490007245F8D10CF1010214F00C0F03EB02128B
:1034A00004F00F0C13D0ACF1040323F00303043336
:1034B000134442F8045B9342FBD10CF003042CB19B
:1034C000CAB21C4403F8012B9C42FBD130BD6446B8
:1034D0001346002CF4D1F9E703461446BFE71A4619
:1034E000A446E0E7F0B58BB06D46244FA2F1020C84
:1034F000164604468E460FCF0FC50FCF0FC597E86F
:103500000300BCF1220F45F8040B297030D80EF1EE
:10351000FF3C60460023B4FBF6F2274606FB12414F
:10352000144601F128020DEB020111F8282CBE42CD
:103530001D4600F8012F03F10103ECD900220EF81B
:10354000032095B10EEB030062461CF8011F023206
:103550006FEA0C03734410F8014DA2EB0E022B44EA
:103560009A428CF800400170EEDB70460BB0F0BD63
:10357000002318468EF800300BB0F0BD243600084A
:1035800054657374652044655C20212628234021FE
:10359000254000434F4E5441444F523A20000D0AFB
:1035A00056616C6F72204C69646F3A20000D0A56A8
:1035B000616C6F72206EC3A36F20616D6F73747244
:1035C00061646F206F75207472616E736D697469C8
:1035D000646F2121200D0A004C43445F313678325C
:1035E000004C45445F3133005553417274004144EF
:1035F000430049444C4500546D72205376630000EB
:103600000000000000000001020304060708090092
:103610000000000102030401020304060708090276
:1036200004060800303132333435363738396162B8
:10363000636465666768696A6B6C6D6E6F707172E2
:0C364000737475767778797A00000000CA
:08364C0000A24A04AAAAAAAADE
:04000005080001F1FD
:00000001FF
