:020000040800F2
:1000000000500020F1010008350200083502000808
:100010003502000835020008350200080000000023
:10002000000000000000000000000000ED320008A9
:10003000350200080000000049330008953300082D
:1000400035020008350200083502000835020008B4
:1000500035020008350200083502000835020008A4
:100060003502000835020008350200083502000894
:100070003502000835020008350200083502000884
:100080003502000835020008350200083502000874
:100090003502000835020008350200083502000864
:1000A0003502000835020008350200083502000854
:1000B0003502000835020008350200083502000844
:1000C0003502000835020008350200083502000834
:1000D0003502000835020008350200083502000824
:1000E0003502000835020008350200083502000814
:1000F0003502000835020008350200083502000804
:1001000035020008350200083502000835020008F3
:1001100035020008350200083502000835020008E3
:1001200035020008350200083502000835020008D3
:1001300000000000000000000000000000000000BF
:1001400000000000000000000000000000000000AF
:10015000000000000000000000000000000000009F
:10016000000000000000000000000000000000008F
:10017000000000000000000000000000000000007F
:10018000000000000000000000000000000000006F
:10019000000000000000000000000000000000005F
:1001A000000000000000000000000000000000004F
:1001B000000000000000000000000000000000003F
:1001C000000000000000000000000000000000002F
:1001D000000000000000000000000000000000001F
:0401E0005FF8E0F1F3
:1001F000002103E00A4B5B584350043109480A4B85
:1002000042189A42F6D3094A02E0002342F8043B1E
:10021000074B9A42F9D300F00DFC00F0D7FA704773
:10022000A4420008000000202C0000202C00002028
:1002300088490020FEE70000094A08B59369094C87
:1002400043F010039361636843F440136360E36811
:1002500041F2883083F40053E36002F0A1F9F6E73D
:1002600000100240001001401F4B20499A6942F0E3
:1002700004029A610A6822F0F0020A609A6942F464
:1002800000729A615A6842F400425A60A3F56C43C6
:100290005A6842F020025A600022DA620A225A6347
:1002A0009A6842F460229A609A6842F480129A60D6
:1002B0009A6842F002029A609A6842F001029A60DB
:1002C0009A6842F008029A609A681107FCD49A680A
:1002D00042F004029A60064B9A685207FCD49A686E
:1002E00042F480029A60704700100240000801400A
:1002F0000024014012221B4B1A60A3F580531A6898
:1003000042F480321A601A689103FCD5DA6A42F02E
:100310004002DA62DA6A42F4C062DA621A6842F0D3
:1003200080621A60DA6A42F48032DA62DA6A42F093
:100330000402DA625A6842F480325A605A6842F41F
:10034000E0125A605A6842F480625A601A6842F0B9
:1003500080721A601A689201FCD55A6842F0020253
:100360005A6070470020024082B00190019B094A08
:10037000019B0BB902B07047938A9BB243F0010313
:100380009382938C9BB2042BFBD9019B013B01937D
:10039000EEE700BF00040040084AD36943F00203BF
:1003A000D3610023A2F503321380F92393851388C8
:1003B0009BB243F001031380704700BF001002405E
:1003C0000123420900F01F0003FA00F0014B43F83B
:1003D0002200704700E100E00122430900F01F0005
:1003E00002FA00F0024A203342F82300704700BFAF
:1003F00000E100E010B5B8B9302348700B7010BDB3
:1004000092FBF4F20133002AFADC0024CA18CC541F
:100410000A230028F3DD90FBF3F103FB11003030D9
:1004200002F8010D0846F4E7024600230A24EAE731
:100430002DE9F0410C4600210546164603F0EEFD7D
:1004400020B12D2305F1004504F8013B284603F0B7
:100450000DFE21460746FFF7CDFF227823460134E3
:10046000002AFAD12E2238461A7003F035FD0146D3
:10047000284603F07BFC2546DFF834802B1B9E4288
:1004800005DC002326EAE676A355BDE8F081414667
:1004900003F0A8F9074603F0E9FD00F1300305F881
:1004A000013B03F019FD0146384603F05FFCE5E728
:1004B0000000204110B5012186B044F2040000F094
:1004C0008FFC4FF40073ADF8043041F60303144C75
:1004D00001A92046ADF8063000F057FD4FF48063C7
:1004E000ADF80430042320460DEB03018DF80730EE
:1004F00000F04BFD00234FF4E132CDE902234FF42D
:10050000402204F54054204602A90492ADF814306C
:1005100000F066FE0121204600F0D4FE06B010BDBA
:100520000008014038B5084D441E14F8011F01B9F8
:1005300038BD284600F02CFF4021284600F09BFFE4
:100540000028F9D0F1E700BF00380140174B9A6945
:1005500042F480629A619A6942F008029A61144AF0
:10056000136823F0F0031360124B5A6822F41062F0
:100570005A605A6842F020025A6099680E4A0A404E
:100580009A609A6842F00B029A601A6942F0C0526F
:100590001A615A6B42F009025A639A681207FCD436
:1005A0009A6842F001029A60704700BF0010024052
:1005B000000C014000280140FDF7E1FF07B5FFF7FF
:1005C000C5FF074D074CEB6C20680193002301A980
:1005D0001A4601F0A6F84CF2503001F0E1FFF2E7C4
:1005E000002801402C000020054B9A6842F480024C
:1005F0009A601A689207FCD5D86C80B2704700BF29
:1006000000280140294AF8B59369002443F0040307
:100610009361274B274A284F1A60DA68274E42F029
:100620008002DA60DA6842F08002DA60DA6842F06A
:100630004002DA60DA6842F02002DA60DA6842F0FA
:100640001002DA60DA6842F00802DA60DA6842F032
:100650000402DA6000F0C4F90C2000F038F900223E
:100660001748114600F0A4F900220121154800F0B6
:100670009FF9E5B240F2DC5001F092FF2A460021DA
:10068000384600F095F9C5F1100201213046D2B28A
:10069000013400F08DF9102CEBD140F2DC5001F068
:1006A0007FFFBDE8F84000F092B900BF00100240A3
:1006B0000008014000333333684200085742000805
:1006C00048420008594200082DE9F04F0FF2D009C6
:1006D000D9E900890124002687B0FFF793FF324A49
:1006E000324D936943F0080393616B6843F0040350
:1006F0006B60EB6843F48073EB60AB68DB0505D59A
:10070000012C0CBF0224012400F061F9284B642263
:10071000186803A901F00FF900B1039E012C17D14D
:1007200000222448114600F043F9304603F060FAF5
:1007300042464B4602F02CFF03F0C4FA04A9022201
:10074000FFF776FE0622214604A800F031F9D4E72F
:10075000022CD2D100221848114600F029F90022BB
:100760000121164800F024F90023DFF854B0DFF827
:1007700054A0DFB24FF47A70019301F011FF3A46B2
:100780000021584600F014F9C7F11002012150462B
:10079000D2B200F00DF9019B0133102BE9D1ACE787
:1007A0005CE84A04AA7F803F00100240000C014030
:1007B0002C0000206A420008484200085942000804
:1007C0006842000857420008704700BF07B5002282
:1007D0000421022000F082FF002404250F4B186042
:1007E000FFF788FD0E48234664220E49CDE90054E8
:1007F00001F042FB234664220B49CDE900540B482B
:1008000001F03AFB234664220949CDE90054094826
:1008100001F032FB01F076FDFEE700BF2C00002066
:10082000C90600087A42000883420008390200081D
:100830008A420008BD05000810B51D4C10F0100FCD
:10084000E36814BF43F0200323F02003E360E36870
:1008500082064CBF43F0100323F01003E360E3680B
:1008600042064CBF43F0080323F00803E360C309CA
:10087000E36814BF43F0040323F00403E360E36878
:1008800091B143F08003E360E368782043F04003D4
:10089000E36001F085FEE368782023F04003E36025
:1008A000BDE8104001F07CBE23F08003EBE700BF01
:1008B0000008014010B504460121FFF7BDFF2001EB
:1008C0000121BDE8104000F0F000FFF7B5BF10B502
:1008D00004460021FFF7B0FF20010021BDE81040D1
:1008E00000F0F000FFF7A8BF10B5044641B942F090
:1008F0008000FFF7ECFF2046BDE81040FFF7DABFAD
:1009000042F0C000F5E72DE9F04742F2107A4FF4CB
:100910007A74B0FBFAF3B0FBF4F90AFB130A04FB98
:100920001909BAFBF4F76424B0FBF4F8B9FBF4F648
:1009300004FB18080A24B0FBF4FCB8FBF4F504FB34
:100940001C00C4B213F0FF00FFB2F6B2EDB211D139
:100950002020FFF7C9FFBAF57A7F0FD22020FFF7DA
:10096000A9FFB9F1630F0FD906F13000C0B2FFF74C
:10097000A1FF0FE03030C0B2FFF7B6FF07F1300043
:10098000C0B2FFF797FFEFE72020FFF793FFB8F122
:10099000090F03D905F13000C0B200E02020FFF7B5
:1009A00089FF04F13000C0B2BDE8F047FFF782BF15
:1009B00070B50E461446451E15F8010F00B970BDFE
:1009C000224631460134FFF78FFFE4B2F4E708B561
:1009D0000220FFF77CFFBDE808400120FFF777BF4A
:1009E00008B5302001F0DCFD00213020FFF724FFA6
:1009F000052001F0D5FD00213020FFF71DFF9620D6
:100A000001F0CEFD00213020FFF716FF002120204D
:100A1000FFF712FF2820FFF75AFF0F20FFF757FFBD
:100A20000120FFF754FF0620FFF751FFBDE8084003
:100A3000FFF7CDBF374B82B01A6842F001021A604F
:100A40005968354A0A405A601A6822F0847222F4C2
:100A500080321A601A6822F480221A605A6822F4DE
:100A6000FE025A604FF41F029A6000220092019227
:100A70001A6842F480321A601A6802F40032019255
:100A8000009A01320092019A1AB9009AB2F5A06F49
:100A9000F2D11A6812F4003218BF01220192019AB1
:100AA000012A30D11D4A116841F01001116011680E
:100AB00021F003011160116841F0020111605A68D0
:100AC0005A605A685A605A6842F480625A605A689A
:100AD00022F47C125A605A6842F4E8125A601A688A
:100AE00042F080721A601A689201FCD55A6822F0AE
:100AF00003025A605A6842F002025A605A6802F0D1
:100B00000C02082AFAD14FF00062054B9A6002B03D
:100B1000704700BF001002400000FFF800200240B4
:100B200000ED00E01049114A4B6803F00C03082B5C
:100B30000AD00F4B13604B68C3F3031313441979A6
:100B40001368CB40136070474B684868C3F3834316
:100B5000C00303F1020302D406484343EAE74868AE
:100B60008003F9D40248F8E700100240000000209A
:100B700000127A0000093D000D4B1A6842F0010294
:100B80001A6059680B4A0A405A601A6822F0847247
:100B900022F480321A601A6822F480221A605A689D
:100BA00022F4FE025A604FF41F029A60704700BFA1
:100BB000001002400000FFF80C4BB0F5803F1A68AF
:100BC00022F480321A601A6822F480221A6003D05C
:100BD000B0F5802F05D070471A6842F480321A6051
:100BE00070471A6842F4A022F9E700BF00100240E3
:100BF000002382B0094901930B68019A03F4003382
:100C000001320192019AB2F5A06F01D0002BF3D00E
:100C10000868C0F3404002B0704700BF00100240B7
:100C2000034A136823F0F80343EAC00313607047D4
:100C300000100240014B1860704700BF00004242A4
:100C4000034A536823F47C130B43034353607047F8
:100C500000100240014B1866704700BF000042427E
:100C6000034A536823F0030303435360704700BFF4
:100C700000100240024B586800F00C00704700BFA3
:100C800000100240034A536823F0F003034353600B
:100C9000704700BF00100240034A536823F4E0632A
:100CA00003435360704700BF00100240034A53687B
:100CB00023F4605343EAC0035360704700100240BE
:100CC000044B5A7A11B110435872704722EA00005F
:100CD000FAE700BF00100240014BC3F8D80070478C
:100CE00000004242034A536823F4404303435360E5
:100CF000704700BF001002400022084B012883F813
:100D0000202083F8202002D0042803D0704783F8E5
:100D100020007047052283F8202070470010024011
:100D2000014BC3F88004704700004242024A136A34
:100D300003431362704700BF00100240014BC3F829
:100D40003C047047000042421B4A10B5536803F050
:100D50000C03082B1FD0194B036053681849C3F3C9
:100D60000313CC5C0368E34043605468C4F302247B
:100D70000C5D23FA04F484605468C4F3C2240C5D4F
:100D8000E340C3605268C2F3813211440A7CB3FB72
:100D9000F2F3036110BD53685168C3F38343CC037E
:100DA00003F1020302D407494B43D5E75168890395
:100DB000F9D40249F8E700BF0010024000127A009F
:100DC0001400002000093D00044B5A6911B1104382
:100DD0005861704722EA0000FAE700BF00100240A5
:100DE000044B9A6911B110439861704722EA0000E0
:100DF000FAE700BF00100240044BDA6911B110435A
:100E0000D861704722EA0000FAE700BF00100240F4
:100E1000044BDA6811B11043D860704722EA000031
:100E2000FAE700BF00100240044B1A6911B11043E9
:100E30001861704722EA0000FAE700BF0010024084
:100E4000014BC3F84004704700004242014BD86494
:100E5000704700BF00004242014BD871704700BF8D
:100E6000001002404209012A074B07D11B6800F01D
:100E70001F0023FA00F000F001007047022A0CBFA7
:100E80001B6A5B6AF3E700BF00100240024A536A24
:100E900043F080735362704700100240034B9B681D
:100EA000184214BF01200020704700BF001002400C
:100EB000014B9872704700BF0010024008B5264BE6
:100EC000984209D101210420FFF7A2FF002104204C
:100ED000BDE80840FFF79CBF204B984206D1012196
:100EE0000820FFF795FF00210820F1E71C4B9842EE
:100EF00006D101211020FFF78BFF00211020E7E72A
:100F0000184B984206D101212020FFF781FF0021D4
:100F10002020DDE7144B984206D101214020FFF745
:100F200077FF00214020D3E7104B984206D10121E2
:100F30008020FFF76DFF00218020C9E70C4B98420D
:100F400008D101214FF48070FFF762FF00214FF4B8
:100F50008070BDE708BD00BF00080140000C0140E3
:100F6000001001400014014000180140001C014025
:100F700000200140012108B50846FFF749FFBDE800
:100F8000084000210120FFF743BF2DE9F041CB7855
:100F90000F88DA0648BF8A7803F00F0548BF15436B
:100FA0000A78D2B100214FF0010C4FF00F0E026809
:100FB0000CFA01F636EA07040BD18C000EFA04F89D
:100FC00022EA080205FA04F4282B42EA040225D199
:100FD000466101310829EBD10260FF2F1CD90021A5
:100FE0004FF0010C4FF00F0E426801F108040CFAAB
:100FF00004F434EA07060BD18E000EFA06F822EA52
:10100000080205FA06F6282B42EA06020AD14461D4
:1010100001310829E9D14260BDE8F081482B08BFC1
:101020000661D6E7482B08BF0461F1E74FF6FF736E
:10103000038040F20243438070478368194214BF23
:10104000012000207047806880B27047C368194251
:1010500014BF012000207047C06880B27047016152
:101060007047416170470AB1016170474161704743
:10107000C160704741F4803383618161836183691A
:1010800083697047054A136823F07F031B041B0C18
:101090000B4343EA00131360704700BF0000014098
:1010A000014BD861704700BF000020420028164A5B
:1010B00030B500F44015B4BFD3695368B5F5401F8F
:1010C00084B210D1556823F0706325F070655560C7
:1010D00019B1420D1201944023430B4A0028B4BFBA
:1010E000D361536030BDC2024DBF0322420D1201D5
:1010F000C0F303454CBFAA4004FA02F223EA0203FC
:1011000043F07063E4E700BF0000014010B50F2416
:1011100001F0030301F0FC0101F1804101F5803190
:101120008A689B009C4022EA04028A608A68984090
:101130001043886010BD024BC3F8DC00704700BF4D
:101140000000204208B5214B98420BD101214FF4F9
:101150008040FFF75DFEBDE8084000214FF480406D
:10116000FFF756BE1A4B98420BD101214FF40030C5
:10117000FFF75AFE00214FF40030BDE80840FFF7AA
:1011800053BE144B984208D101214FF48020FFF741
:101190004BFE00214FF48020EFE70F4B984208D11F
:1011A00001214FF40020FFF73FFE00214FF4002003
:1011B000E3E70A4B984208D101214FF48010FFF772
:1011C00033FE00214FF48010D7E708BD00380140FE
:1011D0000044004000480040004C004000500040E7
:1011E00030B50D460446038A8A899BB2C98823F428
:1011F00040530B4303828389A98823F4B05323F01F
:101200000C031B041B0C0B43298987B00B43698912
:101210000B439BB28381838A9BB223F440731343B5
:10122000838201A8FFF790FDDDE9033214498C4267
:1012300008BF13461922A18953432A680D044CBFE5
:10124000520092006421B3FBF2F3B3FBF1F001FB17
:1012500010330201A08900044BBFDB001B013233B5
:1012600032334BBFB3FBF1F3B3FBF1F303F00703EE
:1012700003F00F0313439BB2238107B030BD00BFBF
:10128000003801404FF416520023C0E900234FF408
:1012900040228381826070470B8810B54C88028A97
:1012A00023438C88C98892B223430B4322F4706293
:1012B00013439BB2038210BD0023038043808380CD
:1012C000C3807047838921B19BB243F4005383816B
:1012D000704723F400531B041B0CF8E7012310B5DF
:1012E000C1F342149C4201F01F0103FA01F105D140
:1012F0000C3003683AB11943016010BD022C0CBFD9
:1013000010301430F5E723EA0101F5E7838A9BB238
:1013100012B119438182704723EA0101FAE7038A77
:1013200023F00F031B041B0C0382038A9BB20B43A5
:1013300003827047838923F400631B041B0C8381A1
:1013400083899BB20B4383817047838921B19BB210
:1013500043F002038381704723F002031B041B0C3C
:10136000F8E7038A23F020031B041B0C0382038A83
:101370009BB20B4303827047038A21B19BB243F4B3
:1013800080430382704723F480431B041B0CF8E75F
:10139000C1F30801818070478088C0F3080070475E
:1013A00083899BB243F0010383817047028BD2B2E1
:1013B0000283038B9BB243EA012303837047028BB2
:1013C00002F47F420283038B9BB20B43038370477B
:1013D000838A21B19BB243F020038382704723F0BC
:1013E00020031B041B0CF8E7838A21B19BB243F056
:1013F00010038382704723F010031B041B0CF8E7D3
:10140000838A21B19BB243F008038382704723F0A3
:1014100008031B041B0CF8E7838931B16FEA4343CF
:101420006FEA53439BB283817047C3F30E03FAE71D
:10143000838A21B19BB243F400638382704723F413
:1014400000631B041B0CF8E7838A23F004031B04CE
:101450001B0C8382838A9BB20B4383827047838AEF
:1014600021B19BB243F002038382704723F0020351
:101470001B041B0CF8E70388194214BF012000204D
:101480007047C94389B201807047012310B5C1F389
:10149000421402469C4201F01F0003FA00F00ED1F4
:1014A000938912889BB2184092B238B10123090A7D
:1014B00003FA01F10A4214BF1846002010BD022CA5
:1014C0000CBF138A938AECE70123090A8B40DB43A4
:1014D0009BB20380704700BF4FF0FF3200F108035A
:1014E000C0E90223436003610023036070470023C7
:1014F0000361704743689A684B608A609A685160DC
:1015000099600368086101330360704730B50C6867
:10151000631C0AD103695A684A6091608B60596004
:10152000036808610133036030BD00F1080213460F
:1015300052681568A542FAD9EDE70369D0E90112AE
:101540008A6051605968814208BF5A600022026176
:101550001A68013A1A601868704710B5044601F01D
:10156000DAFEA46B01F0E6FEB4FA84F0400910BD87
:10157000F8B51546026C0446866B52B9076847BB3E
:10158000806801F09BFA0546A76001362846A663ED
:10159000F8BD65B9406802F08FFD6368226C1344A2
:1015A000A26863609342F0D323686360EDE7C0688C
:1015B00002F082FD226CE36851429B1A2268E360CC
:1015C00093423EBFA3685B18E360022D01D116B1C0
:1015D000013E0025D9E73546D7E703461A6C084691
:1015E00010B462B1DC68996814448C4228BF196851
:1015F000DC6028BFD960D96810BC02F05DBD10BCAA
:10160000704770B5044601F086FE94F8455004F129
:1016100024066DB2002D14DCFF2384F8453001F060
:1016200089FE01F078FE94F8445004F110066DB282
:10163000002D12DCFF2384F84430BDE8704001F037
:1016400079BE636A002BE7D0304601F075F808B127
:1016500001F006F9013D6DB2DCE72369002BE9D00A
:10166000304601F069F808B101F0FAF8013D6DB2B9
:10167000DEE738B504460D4601F04DFED4E90F31E2
:101680004B432268D0185B1A1344A060E36000202B
:10169000FF23A063626084F8443084F84530A5B924
:1016A000236973B104F1100001F046F848B14FF01E
:1016B000E0234FF08052C3F8042DBFF34F8FBFF3E8
:1016C0006F8F01F037FE012038BD04F11000FFF7E5
:1016D00003FF04F12400FFF7FFFEF2E7F8B506462A
:1016E000484350300D46174601F0B8FE044658B145
:1016F00065B100F1500301212046C4E90F65236064
:10170000FFF7B7FF84F84C702046F8BD0346F2E7B8
:1017100010B502220C460021FFF7E0FF00B1846300
:1017200010BD2DE9F0434FF0000804460F461E4659
:10173000C14685B0019201F0EEFDA26BE36B9A42C7
:1017400001D3022E1BD1324639462046FFF710FF47
:10175000636A1BB104F1240000F0EEFF48B14FF0C2
:10176000E0234FF08052C3F8042DBFF34F8FBFF337
:101770006F8F01F0DFFD012005B0BDE8F083019D12
:101780001DB901F0D7FD0020F6E7B8F1000F02D136
:1017900002A801F035F801F0CDFD00F0F1FD01F0F7
:1017A000BAFD94F84430FF2B08BF84F8449094F8B5
:1017B0004530FF2B08BF84F8459001F0BBFD01A91F
:1017C00002A801F027F840BB01F0A5FDA26BE36B76
:1017D0009A420FD101F0AEFD019904F1100000F022
:1017E00071FF2046FFF70DFF00F054FE50B14FF09F
:1017F0000108A0E701F09EFD2046FFF702FF00F080
:1018000049FEF4E74FF0E0234FF08052C3F8042D77
:10181000BFF34F8FBFF36F8FE9E72046FFF7F1FE6D
:1018200000F038FEAFE7024610B500210120FFF7B7
:1018300055FF044638B100231A46194683600360F9
:10184000C360FFF76EFF204610BD38B585680446BB
:1018500001F0CEF885420AD1E368013BE36023B989
:101860001A4619462046FFF75CFF012000E00020E1
:1018700038BDF8B5174604461A46EFF311864FF007
:10188000100383F31188BFF36F8FBFF34F8F806B0B
:10189000E36B984201D3022A1DD194F845502046AB
:1018A0006DB2FFF765FE6B1C10D1636A0BB90120A6
:1018B00009E004F1240000F03FFF0028F7D0002FDA
:1018C000F5D00120386086F31188F8BD01356DB27E
:1018D00084F84550EBE70020F5E738B50C46EFF308
:1018E00011854FF0100383F31188BFF36F8FBFF39F
:1018F0004F8F826BC36B93421BD990F84510013216
:10190000FF294BB282630FD1436A0BB9012008E073
:10191000243000F011FF0028F8D0002CF6D0012070
:10192000206085F3118838BD01335BB280F8453003
:10193000ECE70020F5E72DE9FF41002704460E46BD
:10194000B846019201F0E7FCA56BE5B131462046AF
:10195000013DFFF742FEA563236973B104F1100056
:1019600000F0EAFE48B14FF0E0234FF08052C3F898
:10197000042DBFF34F8FBFF36F8F01F0DBFC01200D
:1019800004B0BDE8F081019D1DB901F0D3FC002039
:10199000F6E717B902A800F033FF01F0CBFC00F026
:1019A000EFFC01F0B8FC94F84430FF2B08BF84F83A
:1019B000448094F84530FF2B08BF84F8458001F03F
:1019C000B9FC01A902A800F025FF00BB2046FFF7E3
:1019D000C4FDB0B1019904F1240000F073FE20466B
:1019E000FFF70FFE00F056FD48B94FF0E0234FF02F
:1019F0008052C3F8042DBFF34F8FBFF36F8F0127C1
:101A0000A0E72046FFF7FDFD00F044FDF7E7204684
:101A1000FFF7F7FD00F03EFD2046FFF79EFD002892
:101A2000EDD0B4E72DE9FF41002504462F462E46B0
:101A3000019101F070FCA36BF3B1013BA363236838
:101A400013B901F0C1F8A060236973B104F110006B
:101A500000F072FE48B14FF0E0234FF08052C3F81F
:101A6000042DBFF34F8FBFF36F8F01F063FC01258F
:101A7000284604B0BDE8F081DDF80480B8F1000F1D
:101A800003D101F057FC0025F2E717B902A800F0D6
:101A9000B7FE01F04FFC00F073FC01F03CFC94F841
:101AA0004430FF2B08BF84F8446094F84530FF2B86
:101AB00008BF84F8456001F03DFC01A902A800F0D0
:101AC000A9FE50BB2046FFF748FD00B323683BB991
:101AD00001F021FCA06800F0A1FF054601F02AFCFE
:101AE000019904F1240000F0EDFD2046FFF789FD87
:101AF00000F0D0FC48B94FF0E0234FF08052C3F81B
:101B0000042DBFF34F8FBFF36F8F012791E720465E
:101B1000FFF777FD00F0BEFCF7E72046FFF771FD09
:101B200000F0B8FC2046FFF718FD0028EDD0002D8E
:101B30009ED001F0F0FB616A19B1236B1968C1F105
:101B40000501A06800F0F2FF9BE770B586680446C7
:101B50000D4600F04DFF864204D10120E3680133B9
:101B6000E36070BD29462046FFF75CFF0028F8D0EF
:101B7000E3680133E360F4E72DE9FF410027044601
:101B80000E46B846019201F0C6FBA36BE3B13146A5
:101B90002046E568FFF721FD636AE56073B104F153
:101BA000240000F0C9FD48B14FF0E0234FF080520F
:101BB000C3F8042DBFF34F8FBFF36F8F01F0BAFB53
:101BC000012004B0BDE8F081019D1DB901F0B2FB18
:101BD0000020F6E717B902A800F012FE01F0AAFBF8
:101BE00000F0CEFB01F097FB94F84430FF2B08BFC8
:101BF00084F8448094F84530FF2B08BF84F8458072
:101C000001F098FB01A902A800F004FE00BB2046E9
:101C1000FFF7A3FCB0B1019904F1240000F052FDDC
:101C20002046FFF7EEFC00F035FC48B94FF0E0230A
:101C30004FF08052C3F8042DBFF34F8FBFF36F8F67
:101C40000127A0E72046FFF7DCFC00F023FCF7E7C4
:101C50002046FFF7D6FC00F01DFC2046FFF77DFC78
:101C60000028EDD0B4E72DE9F04105469046EFF3AA
:101C700011874FF0100383F31188BFF36F8FBFF309
:101C80004F8F846B0CB390F84460013C76B2FFF741
:101C9000A4FC731CAC6313D12B690BB901200BE0BE
:101CA00005F1100000F048FD0028F7D0B8F1000F52
:101CB000F4D00120C8F8000087F31188BDE8F08156
:101CC000013676B285F84460E8E72046F4E770B55F
:101CD0000446EFF311854FF0100383F31188BFF32F
:101CE0006F8FBFF34F8F836B3BB1C668FFF775FCF7
:101CF0000120E66085F3118870BD1846FAE710B53B
:101D0000044601F008FBA46B01F014FB204610BD53
:101D100010B5044601F0FFFAA06BE46B241A01F041
:101D200009FB204610BD806B704701F001BC806C40
:101D300070478164704790F84C007047806BB0FA30
:101D400080F040097047836BC06BC31A58425841FA
:101D5000704770B504460D46164601F0DCFA94F85B
:101D60004430FF2B04BF002384F8443094F84530FE
:101D7000FF2B04BF002384F8453001F0DBFAA36B8E
:101D80002BB93246294604F1240000F0BFFC20465E
:101D9000BDE8704035E40000F8B5184C06462568EB
:101DA00060680F460430FFF7C8FB38B96268A36863
:101DB000D16A01228A4023EA0203A360731C07D17F
:101DC00037B161680E480431BDE8F840FFF792BBB7
:101DD0006368AD195D6006D3206A6168BDE8F840AC
:101DE0000431FFF793BB606A61680431FFF78EFB33
:101DF000A36AAB4288BFA562F8BD00BF30000020D7
:101E00003C000020064B5A6A12681AB94FF0FF32A4
:101E10009A6270475A6AD268D2685268F8E700BF7F
:101E20003000002080B54FF0E0264FF08057114C75
:101E3000636C4BB9A36C012BFAD9C6F8047DBFF3D0
:101E40004F8FBFF36F8FF3E701F065FAA36BDD6887
:101E5000281DFFF772FB236C013B2364636C013B7D
:101E6000636401F067FA286B01F062FB284601F019
:101E70005FFBDDE7300000202DE9F84F96000746B4
:101E800030460D46984601F0E9FA8146A0B15C2043
:101E900001F0E4FA044660B1C0F830903246A52162
:101EA000484602F07FF9D4F830B045B984F8345090
:101EB00013E0484601F03CFB4FF0FF368CE06B1E10
:101EC00004F134020F3513F8010F02F8010B08B1C9
:101ED0009D42F8D1002384F843300A9D4FF0000A58
:101EE000042D28BF042504F104094846E562E56491
:101EF000C4F850A0043EFFF7FAFAC5F1050504F155
:101F000018005E44FFF7F3FAC4F854A0424639467D
:101F10002461A561646284F858A026F0070001F0EE
:101F2000D4F90B9B206003B11C60324D01F0F3F932
:101F30002B6C05F1480701332B646E68002E4ED1DF
:101F40006C602B6C012B20D1B84640460136FFF760
:101F5000C3FA052E08F11408F7D1274E304606F1D2
:101F60001408FFF7B9FA4046FFF7B6FA06F1280061
:101F7000FFF7B2FAA6F18000FFF7AEFAA6F1A000D3
:101F8000FFF7AAFA6E62C5F8208001261420D5F862
:101F9000EC30E26AA9680133C5F8EC30636406FAF4
:101FA00002F30B4300FB02704946AB60FFF7A2FA55
:101FB00001F0C0F9D5F8E83073B16B68DA6AE36A0A
:101FC0009A4209D24FF0E0234FF08052C3F8042D1B
:101FD000BFF34F8FBFF36F8F3046BDE8F88FD5F852
:101FE000E830002BD1D16B68E26ADB6A9A4228BFE5
:101FF0006C60CAE730000020DC00002070B50546A8
:10200000244C01F088F905B965682E1D3046FFF7AC
:1020100094FA58B91420E96A00FB0140836C2BB98B
:102020000122A3688A4023EA0203A360AB6A1BB1C2
:1020300005F11800FFF781FAD4F8EC300133C4F849
:10204000EC306368AB4219D131461348FFF752FABE
:10205000636C0133636401F06DF9D4F8E83063B167
:102060006368AB4209D14FF0E0234FF08052C3F8D0
:10207000042DBFF34F8FBFF36F8F70BD236C286BA0
:10208000013B236401F054FA284601F051FAFFF7AE
:10209000B9FEE0E7300000205C0000202DE9F041AF
:1020A000164C05466368834221D001F034F9D4F818
:1020B00024806E69276A01F03DF9464519D0BE4279
:1020C00017D004F10C039E4209D1AB6A8BB995F885
:1020D0005830012B0CBF02200320BDE8F0812C34C6
:1020E000A64208D0002E0CBF04200120F5E70020F6
:1020F000F3E70220F1E70420EFE700BF3000002003
:1021000010B5044601F007F90CB9034B5C68E46AAA
:1021100001F010F9204610BD30000020EFF31183CC
:102120004FF0100282F31188BFF36F8FBFF34F8F10
:1021300008B9034A5068C06A83F31188704700BF2A
:102140003000002004292DE9F84328BF042104466B
:102150000D4601F0E0F80CB9294B5C68E36C9D4238
:1021600042D0274F44D97A68A24246D07A68D66ACC
:10217000AE428CBF00260126D4F82C90E5644B4576
:10218000A36908BFE562002B4FF01403A4BFC5F19B
:102190000505A5611B4D626903FB09539A4218D1DD
:1021A00004F104084046FFF7C8F930B90122BB68C2
:1021B00002FA09F223EA0203BB6001231420E26A57
:1021C000B96893400B4300FB02504146BB60FFF7E8
:1021D00091F94EB14FF0E0234FF08052C3F8042D37
:1021E000BFF34F8FBFF36F8FBDE8F84301F0A2B884
:1021F0007E68321B56425641BEE70026BCE700BF50
:10220000300000207800002070B51C4D04466B683B
:10221000834232D088B301F07EF8626905F10C0385
:102220009A4226D1A36A05F1D402934221D003BB7E
:10223000261D3046FFF781F901231420E26AA968C0
:1022400093400B43AB6005F1480300FB023031467D
:10225000FFF750F96B68E26ADB6A9A4209D34FF0E4
:10226000E0234FF08052C3F8042DBFF34F8FBFF32C
:102270006F8FBDE8704001F05DB870BD3000002088
:102280002DE9F0410646EFF311874FF0100383F379
:102290001188BFF36F8FBFF34F8F194D426905F15E
:1022A0000C039A4229D1846A05F1D400844224D0D7
:1022B0001CBBD5F8F030EBB96B68F46ADB6A06F149
:1022C00004089C42404634BF00240124FFF735F93E
:1022D00001231420F26AA96893400B434146AB6086
:1022E000483500FB0250FFF705F987F311882046B7
:1022F000BDE8F08106F11801F5E70024F5E700BF1D
:102300003000002037B50025124C782204F1F40388
:10231000019311492B4611480095FFF7ADFD0128A7
:1023200016D100F00FFE012812D14FF0100383F3F5
:102330001188BFF36F8FBFF34F8F4FF0FF33A3624E
:10234000C4F8E800256003B0BDE8304001F043B8B0
:1023500003B030BD3000002094420008251E000864
:102360004FF0100383F31188BFF36F8FBFF34F8FCC
:102370000022024BC3F8E82000F0CCBF3000002060
:10238000034AD2F8F0300133C2F8F030704700BF92
:1023900030000020014B1868704700BF300000205B
:1023A000014B1868704700BF30000020014B186CCB
:1023B000704700BF3000002008B9024B5868343025
:1023C000704700BF300000202DE9F84F2F4CD4F8A3
:1023D000F030002B53D127680137276057B9636A63
:1023E000226A62622362D4F8F8300133C4F8F8300C
:1023F000FFF708FDA36A0025BB4210D914226368C9
:10240000DB6A02FB03439B6C022B28BF0125D4F837
:102410000031002B0CBF28460120BDE8F88F4FF09B
:10242000010A4FF01409DFF86880636A1B681BB962
:102430004FF0FF33A362E1E7636ADB68DE6873682D
:102440009F42F7D306F1040B5846FFF776F8B36ABC
:102450001BB106F11800FFF770F8F06AA2680AFADB
:1024600000F31343594609FB0080A360FFF742F8CD
:102470006368F26ADB6A9A4228BF0125D5E7D4F87F
:10248000FC3000250133C4F8FC30C0E730000020E8
:10249000780000202DE9F8432D4C00F03CFFD4F8E3
:1024A000F030013BC4F8F030D4F8F0502DB10024E6
:1024B00000F040FF2046BDE8F883236C002BF6D0E7
:1024C00001264FF0140804F148071DE0D4F8E0306D
:1024D000DD6805F1040905F11800FFF72EF84846FC
:1024E000FFF72BF8E86AA26806FA00F3134349469F
:1024F00008FB0070A360FEF7FDFF6368EA6ADB6A11
:102500009A4201D3C4F80061D4F8D430002BDDD155
:102510000DB1FFF777FCD4F8FC504DB10126FFF761
:1025200053FF08B1C4F80061013DF8D1C4F8FC5074
:10253000D4F80031002BBAD04FF0E0234FF0805296
:10254000C3F8042DBFF34F8FBFF36F8F0124AFE7A4
:102550003000002010B5FFF713FF104B04681A6815
:1025600063182CBF01210021944203600ED971B978
:10257000FFF790FF48B94FF0E0234FF08052C3F8C7
:10258000042DBFF34F8FBFF36F8F10BD09B99A426F
:10259000EED20021981AFFF7FFFBE9E73000002098
:1025A00008B550B94FF0E0234FF08052C3F8042D26
:1025B000BFF34F8FBFF36F8F08BD0021FFF7E0FE21
:1025C000FFF7EAFBFFF766FF0028EBD0F4E7124ABB
:1025D00030B5D2F8F0301BB10123C2F8003130BD64
:1025E000C2F800319368B3FA83F31425DBB2C3F168
:1025F0001F0305FB03F150180146C46C5031646899
:1026000005FB03238C4208BF6168C46408BFC16432
:10261000DB6CDB685360E2E73000002070B50446F5
:10262000264D00F078FE04B96C68261D3046FEF792
:1026300084FF58B91420E16A00FB0150836C2BB968
:102640000122AB688A4023EA0203AB60A36A1BB194
:1026500004F11800FEF771FF31461948FEF74AFFF2
:1026600094F85830012B04BF002384F8583000F050
:1026700061FED5F8E8302BB100F04DFEFFF7C2FB4C
:1026800000F058FE6B68A3420CD1D5F8E83053B186
:102690004FF0E0234FF08052C3F8042DBFF34F8F6B
:1026A000BFF36F8F70BDE9682A6C914201D16B60F6
:1026B000F8E7BDE87040FFF78ABF00BF3000002098
:1026C0003C00002010B50C46054B59681831FEF748
:1026D0001DFF2046BDE810400121FFF75DBB00BF94
:1026E0003000002010B51446074B41F000415A68F5
:1026F000916159681831FEF7FDFE2046BDE8104093
:102700000121FFF749BB00BF3000002038B5144657
:102710000D46084B59681831FEF7ECFE002C214697
:1027200008BF2846BDE8384018BF4FF0FF30FFF71C
:1027300033BB00BF30000020C36870B5DD68144CA7
:1027400005F118063046FEF7F8FED4F8F030DBB994
:102750002E1D3046FEF7F1FE01231420EA6AA1681F
:1027600093400B433146A36004F1480300FB023061
:10277000FEF7C0FE6368EA6ADB6A9A428ABF0120FC
:102780000020C4F8000170BD314604F1D400EFE729
:1027900030000020F8B5C56841F000410126016015
:1027A0002F1DFEF7CAFE3846FEF7C7FE14200B4C5D
:1027B000EA6AA16806FA02F30B43A36004F1480336
:1027C00000FB02303946FEF795FE6368EA6ADB6A71
:1027D0009A4288BFC4F80061F8BD00BF30000020F5
:1027E00010B5044600F097FD044BD3F8F8201B68A1
:1027F00022606360BDE8104000F09CBD3000002006
:10280000034BD3F8F8201B6802604360704700BF99
:102810003000002070B50C46054600F07CFD2368B2
:102820000E485A1C016810D0D0F8F8002E686A686B
:10283000864201D08A420FD9881A83420AD95B1A8C
:10284000134428462360FFF7DBFF002400F072FDED
:10285000204670BD002323600124F7E730000020EC
:102860000122024BC3F80021704700BF3000002056
:1028700000B1806C704700B18164704770B50C4640
:102880001646054608B91B4A556805F134026260D0
:10289000EA6A052B22612A6B2560E2616A6CA260FC
:1028A000EA6C62614FF00002A26119D011494968D7
:1028B000A94209D12273D6B10023296BCA5CA52A8B
:1028C00013D09B08238470BD032B2373F3D1FFF730
:1028D00057FDAB6A0BB102232373FFF7DBFDEAE779
:1028E0002846FFF7DBFB2073E5E70133E6E72684A4
:1028F000E9E700BF300000202DE9F84F0D680646DB
:102900000C4617462DB300254FF0240B4B6801F100
:1029100008085B6843454B6004BFCB684B604B685D
:10292000D3F80CA063680BFB05615B680122984536
:10293000636008BFD8F8043005F1010508BF636083
:102940006368D3F80C903B464846FFF797FFCA45AB
:10295000E8D12846BDE8F88F2DE9F84FDFF88490DC
:102960001746FFF70DFDD9F8403005468B4237D8A2
:10297000052600244FF0140B4FF0240809F1480AF3
:10298000013E08FB045001220BFB06A1FFF7B4FF38
:102990000444002EF4D1022208FB0450D9F824107C
:1029A000FFF7AAFF0444022208FB0450D9F82010C4
:1029B000FFF7A2FF0444042208FB04500A49FFF772
:1029C0009BFF044408FB045003220849FFF794FFCF
:1029D000044407B13E60FFF75DFD2046BDE8F88F77
:1029E0000024F8E7300000205C0000203C000020BC
:1029F000014B5868704700BF30000020064BD3F8E9
:102A0000E82032B1D3F8F030002B0CBF02200020B8
:102A100070470120704700BF300000202DE9F041D1
:102A20000446002835D0234DC36A6A68D26A9342AF
:102A300037D214268269204F002AA8BF6A6806FB95
:102A40000373A2BFD26AC2F10502826142699A424F
:102A500021D100F104084046FEF76FFD50B9E16A4C
:102A600006FB0156B36C2BB90122AB688A4023EAFE
:102A70000203AB606B681420DB6AA968E36201247F
:102A800004FA03F20A4300FB03704146AA60FEF712
:102A900031FD204603E06B68DB6AC3620120BDE8BC
:102AA000F0816B68C06CDC6AA0422CBF0020012062
:102AB000F5E700BF300000207800002070B5044624
:102AC00008B9002070BD036DC16AC26C013B914220
:102AD0000365F6D0002BF4D1051D2846FEF72DFD29
:102AE000104B58B91421E66A01FB06318A6C2AB9E9
:102AF00001209A68B04022EA00029A60E26CC2F1BA
:102B00000501A161E2620124996804FA02F0084318
:102B100098601420044B294600FB0230FEF7EAFCC3
:102B20002046CFE730000020780000202DE9F0415A
:102B30000446002837D0C36C994238BF1946C36A8F
:102B40008B4230D0026D012A2DD11426174D826997
:102B500005F1480706FB0373002A4269C162A4BF5E
:102B6000C1F1050181619A421DD100F1040840467E
:102B7000FEF7E3FCE26A48B906FB0256B36C2BB9D8
:102B80000121AB68914023EA0103AB6001231420CB
:102B9000A96893400B4300FB02704146AB60BDE85F
:102BA000F041FEF7A7BCBDE8F08100BF3000002077
:102BB000044B5A68596890695A68CB6AC3F1050397
:102BC0009361704730000020044B5A681AB159686D
:102BD0000A6D01320A655868704700BF3000002056
:102BE00070B5174C06460D4600F095FB63685B6DAB
:102BF0008BB90121636883F8581065B12846FFF747
:102C0000CBF84FF0E0234FF08052C3F8042DBFF310
:102C10004F8FBFF36F8F00F08DFB00F07CFB63687C
:102C20005D6D1DB163684EB100225A650022636874
:102C300083F8582000F07EFB284670BD6A1EF4E73A
:102C4000300000202DE9F0411F4C1E4680460F4603
:102C5000154600F060FB636893F85830022B16D0DD
:102C600001216268536D23EA08035365636883F8A2
:102C7000581066B13046FFF78FF84FF0E0234FF061
:102C80008052C3F8042DBFF34F8FBFF36F8F00F056
:102C900051FB00F040FB15B163685B6D2B6063680E
:102CA00093F85830022B03BF62680125536D00254D
:102CB00004BFBB4353650022636883F8582000F0CB
:102CC00039FB2846BDE8F08130000020F8B51D46EC
:102CD00004460F46164600F01EFB0DB1636D2B60D7
:102CE000022394F85850721EEDB284F85830032A2B
:102CF0000AD8DFE802F002060410616D0F43676531
:102D000002E0636D01336365012D08D0012500F0F9
:102D100011FB2846F8BD022DF1D10025F7E7271D4C
:102D20003846FEF70AFC14200E4EE26AB16805FA36
:102D300002F30B43B36006F1480300FB023039464F
:102D4000FEF7D8FB7368E26ADB6A9A42DED94FF07D
:102D5000E0234FF08052C3F8042DBFF34F8FBFF331
:102D60006F8FD4E7300000202DE9F843089F044618
:102D7000EFF311884FF0100080F31188BFF36F8FCD
:102D8000BFF34F8F0BB1606D1860022394F8585059
:102D9000013AEDB284F85830032A0AD8DFE802F08D
:102DA00002060410636D1943616502E0636D01332F
:102DB0006365012D08D0012088F31188BDE8F883F0
:102DC000022DF1D10020F7E7124ED6F8F030E3B92A
:102DD00004F104094846FEF7B0FB14204946E36AB3
:102DE000B2689D40154306F1480200FB0320B56020
:102DF000FEF780FB7368E26ADB6A9A42DBD9012343
:102E000007B13B60C6F80031D5E704F1180106F1BF
:102E1000D400EDE7300000202DE9F84304460F46CA
:102E2000EFF311884FF0100383F31188BFF36F8F16
:102E3000BFF34F8F022390F8582080F85830436D2D
:102E4000012A03F10103D6B243651FD1144DD5F811
:102E5000F030FBB900F104094846FEF76EFB142080
:102E60004946E36AAA689E40164305F1480200FB02
:102E70000320AE60FEF73EFB6B68E26ADB6A9A42B3
:102E800004D9012307B13B60C5F8003188F31188EC
:102E9000BDE8F88300F1180105F1D400EAE700BFAE
:102EA0003000002010B5044608B9084B5C6800F0FB
:102EB00032FA002094F85830022B0ABF84F85800E8
:102EC0000446012400F036FA204610BD30000020F0
:102ED000F8B50D4C00F01FFA256885B9271D384656
:102EE00004F11806FEF7F8FA3046FEF7F5FA2A461E
:102EF0000C210A20C4E90B76FEF7F0FB2060BDE848
:102F0000F84000F017BA00BF34010020914208B524
:102F1000416000610AD8D21A83699A420ED2084BE6
:102F2000011D186BFEF7F2FA002008BD9A4201D28B
:102F3000994203D2024B011DD86AF3E70120F4E75E
:102F40003401002007B5FFF7C3FF084B186848B1EC
:102F5000343301930123F0220093054900230548EF
:102F6000FEF78AFF03B05DF804FB00BF34010020C8
:102F700099420008853000082DE9F04180462C2058
:102F80000F4615461E4600F069FA0446A0B100231C
:102F900080F82830FFF79CFF069BC4E90676C4F84A
:102FA00000802362201DFEF7A2FA2DB194F828308C
:102FB00043F0040384F828302046BDE8F0817FB553
:102FC0000E4C0546206816461A4678B10529CDE90B
:102FD000011603950CDCFFF711FD0023022814BF36
:102FE0001A46089A206801A9FEF79BFB04B070BD41
:102FF000002301A9FEF73DFCF8E700BF34010020E3
:103000002DE9F3470746FFF7C5F91D4D0646AB6BA3
:10301000834232D94FF00008EB6A1A684AB92A6B2A
:10302000C5E90B23012330463B60AE6302B0BDE827
:10303000F087DB68DC68D3F8009004F1040A50469E
:10304000FEF77BFA236A2046984794F828305B07FE
:10305000E2D5A3694B44994506D25146E86A6360BC
:103060002461FEF753FAD7E700234A461946204663
:10307000CDF80080FFF7A3FFCEE70023D3E700BF22
:10308000340100202DE9F04300275C4D87B0EB6A46
:10309000D3F80080B8F1000F50D00024DB68D3F8DB
:1030A0000080FFF76DF903A8FFF7AAFF039B064610
:1030B000002B64D1002C48D140454BD3FFF7EAF9EF
:1030C000EB6ADB68D3F80C9009F10400FEF735FADF
:1030D00099F82830580733D5D9F8181043463246A6
:1030E00048464144FFF712FF30B12346424621468D
:1030F00048460094FFF763FF4846D9F820309847C8
:103100000022286803A9FEF716FC0028BFD0039B05
:10311000002BF5DB059C636913B1201DFEF70DFA4A
:1031200002A8FFF76DFF039B0246092BE8D8DFE8F2
:1031300003F0292929484F5D2929484F0124B0E788
:1031400023F0010389F82830D6E72B6B1C68B4FA0A
:1031500084F4640922462868A8EB0601FEF7F9FD0D
:10316000FFF798F90028CBD14FF0E0234FF08052C1
:10317000C3F8042DBFF34F8FBFF36F8FC0E7FFF786
:1031800089F9BDE794F82830A16943F0010384F878
:103190002830049B20461944FFF7B8FE0028AFD022
:1031A000236A2046984794F828305907A8D5002369
:1031B000A269049920460A4400971946FFF7FFFECA
:1031C0009EE794F8283023F0010384F8283097E72D
:1031D00094F8283043F0010384F82830049903461A
:1031E000A16101442046FFF791FE89E794F8283059
:1031F0009A07E8D4204600F09BF981E734010020CB
:10320000014B586B704700BF340100208069704744
:1032100038B504460D4600F07EF894F828303DB1EC
:1032200043F0040384F82830BDE8384000F082B849
:1032300003F0FB03F6E7406870470068704710B57D
:10324000044600F068F894F8284000F073F804F0A1
:103250000104204610BD10B5044600F05CF8E46996
:1032600000F068F8204610BD38B504460D4600F061
:1032700052F8E561BDE8384000F05CB8406A70473C
:1032800041627047000000000000000000000000E4
:10329000002382B001934FF0100383F31188BFF332
:1032A0006F8FBFF34F8F019B002BFCD002B0704794
:1032B00058480068006880F3088862B661B6BFF3BA
:1032C0004F8FBFF36F8F00DF00BF4FF0807340F868
:1032D000043C054B21F0010140F8081C40F80C3C6F
:1032E00040F8202C4038704791320008084B19688C
:1032F0000868B0E8F00F80F30988BFF36F8F4FF0D4
:10330000000080F311884EF00D0E7047AFF300807F
:103310003400002070474FF0100383F31188BFF38F
:103320006F8FBFF34F8F024A1368013313607047EA
:1033300028000020034A1368013B13600BB983F394
:103340001188704728000020EFF30980BFF36F8FCA
:103350000F4B1A6820E9F00F10602DE908404FF07C
:10336000100080F31188FFF732F94FF0000080F36E
:103370001188BDE8084019680868B0E8F00F80F3CC
:103380000988BFF36F8F7047AFF30080AFF3008001
:103390003400002008B54FF0100383F31188BFF309
:1033A0006F8FBFF34F8FFFF70FF828B14FF0E02377
:1033B0004FF08052C3F8042D002383F3118808BD19
:1033C0004FF0E02300221A619A6140F2CF225A6145
:1033D00007221A6170474FF0E02310B50024D3F89C
:1033E000202D42F47002C3F8202DD3F8202D42F096
:1033F0007042C3F8202DFFF7E3FF054B1C60FFF779
:1034000057FFFFF7E4F8FFF743FF204610BD00BF6A
:103410002800002008ED00E00F4B30B51D461A468D
:103420001B688342FBD354681119884201BF41686D
:10343000104609195160446801198B4206D1A968E8
:103440008B421FBF59681B68091941609042036095
:1034500018BF106030BD00BF700100202DE9F041A1
:10346000314D0446FEF78CFFAB68F3B92F4A510784
:103470001DBFD11D21F0070102F590434FF4904389
:103480001CBF0A465B1A00211344083B23F00703C4
:1034900069602A60C3E90011991AC2E90031AB6082
:1034A0004FF00043C5E903116B61D5F8148018EAA9
:1034B000040F37D1002C2DD004F1080362071CBF84
:1034C00023F0070308336BB32F699F422AD32E687A
:1034D000154872689A4201D2316801BBA968B142AD
:1034E00020D004683168D21A102A04F1080401605F
:1034F00004D9F01842607360FFF78EFF00237268F2
:10350000E968BF1A8F4248EA02022F6138BFEF60B4
:1035100072603360FEF7BEFF2046BDE8F0813046A2
:103520000E46D6E70024F5E7700100208801002050
:1035300038B50446D8B10E4D50F8043C6A691342C0
:1035400015D050F8081C91B923EA020340F8043C56
:10355000FEF716FF2A6954F8043CA4F1080013444E
:103560002B61FFF759FFBDE83840FEF793BF38BD28
:1035700070010020014B1869704700BF70010020E6
:10358000014BD868704700BF70010020704700BF32
:1035900070B54FF0FF0C4CF4E06C1CEA11541DBFE9
:1035A0001CEA135594EA0C0F95EA0C0F00F0DEF8B4
:1035B0002C4481EA030621EA4C5123EA4C5350EA99
:1035C000013518BF52EA033541F4801143F48013EA
:1035D00038D0A0FB02CE4FF00005E1FB02E506F07B
:1035E0000042E0FB03E54FF00006E1FB03569CF0D0
:1035F000000F18BF4EF0010EA4F1FF04B6F5007FD6
:1036000064F5407404D25FEA4E0E6D4146EB060647
:1036100042EAC62141EA55514FEAC52040EA5E50D0
:103620004FEACE2EB4F1FD0C88BFBCF5E06F1ED87A
:10363000BEF1004F08BF5FEA500E50F1000041EBB1
:10364000045170BD06F0004646EA010140EA02005E
:1036500081EA0301B4EB5C04C2BFD4EB0C0541EA80
:10366000045170BD41F480114FF0000E013C00F395
:10367000AB8014F1360FDEBF002001F0004170BDB9
:10368000C4F10004203C35DA0C341BDC04F11404D2
:10369000C4F1200500FA05F320FA04F001FA05F25E
:1036A00040EA020001F0004221F0004110EBD3702B
:1036B00021FA04F642EB06015EEA430E08BF20EA57
:1036C000D37070BDC4F10C04C4F1200500FA04F3FA
:1036D00020FA05F001FA04F240EA020001F000418C
:1036E00010EBD37041F100015EEA430E08BF20EAFF
:1036F000D37070BDC4F1200500FA05F24EEA020E47
:1037000020FA04F301FA05F243EA020321FA04F075
:1037100001F0004121FA04F220EA020000EBD3702C
:103720005EEA430E08BF20EAD37070BD94F0000F2C
:103730000FD101F00046400041EB010111F4801F60
:1037400008BF013CF7D041EA060195F0000F18BF11
:10375000704703F00046520043EB030313F4801F4D
:1037600008BF013DF7D043EA0603704794EA0C0F07
:103770000CEA135518BF95EA0C0F0CD050EA41061D
:1037800018BF52EA4306D1D181EA030101F000419A
:103790004FF0000070BD50EA410606BF10461946C2
:1037A00052EA430619D094EA0C0F02D150EA0136CE
:1037B00013D195EA0C0F05D152EA03361CBF10460F
:1037C00019460AD181EA030101F0004141F0FE41AE
:1037D00041F470014FF0000070BD41F0FE4141F432
:1037E000780170BD4FF0FF0C1CEAD0521EBF1CEADE
:1037F000D15392EA0C0F93EA0C0F6FD01A4480EA6F
:10380000010C400218BF5FEA41211ED04FF0006357
:1038100043EA501043EA5111A0FB01310CF0004083
:10382000B1F5000F3EBF490041EAD3715B0040EAA9
:10383000010062F17F02FD2A1DD8B3F1004F40EB79
:10384000C25008BF20F00100704790F0000F0CF04C
:10385000004C08BF49024CEA502040EA51207F3A10
:10386000C2BFD2F1FF0340EAC250704740F40000EB
:103870004FF00003013A5DDC12F1190FDCBF00F0DC
:1038800000407047C2F10002410021FA02F1C2F18A
:10389000200200FA02FC5FEA310040F1000053EA26
:1038A0004C0308BF20EADC70704792F0000F00F074
:1038B000004C02BF400010F4000F013AF9D040EA7A
:1038C0000C0093F0000F01F0004C02BF490011F40E
:1038D000000F013BF9D041EA0C018FE70CEAD1530C
:1038E00092EA0C0F18BF93EA0C0F0AD030F0004C8C
:1038F00018BF31F0004CD8D180EA010000F0004040
:10390000704790F0000F17BF90F0004F084691F0FD
:10391000000F91F0004F14D092EA0C0F01D1420237
:103920000FD193EA0C0F03D14B0218BF084608D100
:1039300080EA010000F0004040F0FE4040F400004A
:10394000704740F0FE4040F44000704781F0004175
:1039500002E000BF83F0004330B54FEA41044FEA74
:10396000430594EA050F08BF90EA020F1FBF54EA0F
:10397000000C55EA020C7FEA645C7FEA655C00F0AB
:10398000E2804FEA5454D4EB5555B8BF6D420CDD7C
:103990002C4480EA020281EA030382EA000083EAFF
:1039A000010180EA020281EA0303362D88BF30BD9F
:1039B00011F0004F4FEA01314FF4801C4CEA1131F5
:1039C00002D0404261EB410113F0004F4FEA033354
:1039D0004CEA133302D0524263EB430394EA050FDF
:1039E00000F0A780A4F10104D5F1200E0DDB02FA4E
:1039F0000EFC22FA05F2801841F1000103FA0EF2E2
:103A0000801843FA05F359410EE0A5F120050EF1A7
:103A1000200E012A03FA0EFC28BF4CF0020C43FAD8
:103A200005F3C01851EBE37101F0004507D54FF0E5
:103A3000000EDCF1000C7EEB00006EEB0101B1F535
:103A4000801F1BD3B1F5001F0CD349085FEA30007B
:103A50004FEA3C0C04F101044FEA445212F5800F86
:103A600080F09A80BCF1004F08BF5FEA500C50F123
:103A7000000041EB045141EA050130BD5FEA4C0C06
:103A8000404141EB0101013C28BFB1F5801FE9D263
:103A900091F0000F04BF01460020B1FA81F308BF86
:103AA0002033A3F10B03B3F120020CDA0C3208DD52
:103AB00002F1140CC2F10C0201FA0CF021FA02F12D
:103AC0000CE002F11402D8BFC2F1200C01FA02F19D
:103AD00020FA0CFCDCBF41EA0C019040E41AA2BFC2
:103AE00001EB0451294330BD6FEA04041F3C1CDA8A
:103AF0000C340EDC04F11404C4F1200220FA04F0AA
:103B000001FA02F340EA030021FA04F345EA030153
:103B100030BDC4F10C04C4F1200220FA02F001FA15
:103B200004F340EA0300294630BD21FA04F0294697
:103B300030BD94F0000F83F4801306BF81F4801130
:103B40000134013D4EE77FEA645C18BF7FEA655CA3
:103B500029D094EA050F08BF90EA020F05D054EA75
:103B6000000C04BF1946104630BD91EA030F1EBF7A
:103B70000021002030BD5FEA545C05D1400049417E
:103B800028BF41F0004130BD14F580043CBF01F571
:103B9000801130BD01F0004545F0FE4141F4700157
:103BA0004FF0000030BD7FEA645C1ABF1946104632
:103BB0007FEA655C1CBF0B46024650EA013406BF33
:103BC00052EA033591EA030F41F4002130BD00BFF2
:103BD00090F0000F04BF0021704730B54FF48064AF
:103BE00004F132044FF000054FF0000150E700BF30
:103BF00090F0000F04BF0021704730B54FF480648F
:103C000004F1320410F0004548BF40424FF000017B
:103C10003EE700BF42004FEAE2014FEA31014FEABE
:103C200002701FBF12F07F4393F07F4F81F060510D
:103C3000704732F07F4208BF704793F07F4F04BF58
:103C400041F40021704730B54FF4607401F0004535
:103C500021F000411CE700BF50EA010208BF704795
:103C600030B54FF000050AE050EA010208BF704786
:103C700030B511F0004502D5404261EB41014FF4EF
:103C8000806404F132045FEA915C3FF4D8AE4FF0F7
:103C900003025FEADC0C18BF03325FEADC0C18BFDA
:103CA000033202EBDC02C2F1200300FA03FC20FA2B
:103CB00002F001FA03FE40EA0E0021FA02F1144478
:103CC000BDE600BF4FEA4102B2F1E04324BFB3F5C5
:103CD000001CDCF1FE5C0DD901F0004C4FEAC00283
:103CE0004CEA5070B2F1004F40EB830008BF20F067
:103CF0000100704711F0804F21D113F13872BCBF21
:103D000001F00040704741F480114FEA5252C2F175
:103D10001802C2F1200C10FA0CF320FA02F018BFBE
:103D200040F001004FEAC1234FEAD32303FA0CFC11
:103D300040EA0C0023FA02F34FEA4303CCE77FEAA0
:103D4000625307D150EA01331EBF4FF0FE4040F4EA
:103D50004000704701F0004040F0FE4040F4000099
:103D6000704700BF80F0004002E000BF81F00041DA
:103D700042001FBF5FEA410392EA030F7FEA226C11
:103D80007FEA236C6AD04FEA1262D2EB1363C1BFA1
:103D9000D218414048404140B8BF5B42192B88BF10
:103DA000704710F0004F40F4000020F07F4018BF33
:103DB000404211F0004F41F4000121F07F4118BF53
:103DC000494292EA030F3FD0A2F1010241FA03FCFB
:103DD00010EB0C00C3F1200301FA03F100F00043E3
:103DE00002D5494260EB4000B0F5000F13D3B0F1AB
:103DF000807F06D340084FEA310102F10102FE2A1A
:103E000051D2B1F1004F40EBC25008BF20F0010089
:103E100040EA03007047490040EB0000013A28BF28
:103E2000B0F5000FEDD2B0FA80FCACF1080CB2EBAB
:103E30000C0200FA0CF0AABF00EBC2505242184329
:103E4000BCBFD0401843704792F0000F81F40001CE
:103E500006BF80F400000132013BB5E74FEA4103A1
:103E60007FEA226C18BF7FEA236C21D092EA030F0D
:103E700004D092F0000F08BF0846704790EA010F87
:103E80001CBF0020704712F07F4F04D1400028BFB4
:103E900040F00040704712F100723CBF00F5000096
:103EA000704700F0004343F0FE4040F400007047CC
:103EB0007FEA226216BF08467FEA23630146420278
:103EC00006BF5FEA412390EA010F40F4800070478B
:103ED0004FF0000304E000BF10F0004348BF404231
:103EE0005FEA000C08BF704743F0964301464FF06D
:103EF00000001CE050EA010208BF70474FF00003C9
:103F00000AE000BF50EA010208BF704711F0004309
:103F100002D5404261EB41015FEA010C02BF8446D9
:103F20000146002043F0B64308BFA3F18053A3F538
:103F30000003BCFA8CF2083AA3EBC25310DB01FA7F
:103F400002FC634400FA02FCC2F12002BCF1004F03
:103F500020FA02F243EB020008BF20F00100704794
:103F600002F1200201FA02FCC2F1200250EA4C00E8
:103F700021FA02F243EB020008BF20EADC7070472E
:103F80004FF0FF3C06E000BF4FF0010C02E000BF25
:103F90004FF0010C4DF804CD4FEA40024FEA4103C7
:103FA0007FEA226C18BF7FEA236C11D001B052EA7D
:103FB000530C18BF90EA010F58BFB2EB030088BF43
:103FC000C81738BF6FEAE17018BF40F001007047B2
:103FD0007FEA226C02D15FEA402C05D17FEA236C94
:103FE000E4D15FEA412CE1D05DF8040B704700BFDB
:103FF000844608466146FFE70FB5FFF7C9FF002872
:1040000048BF10F1000F0FBD4DF808EDFFF7F4FFAA
:104010000CBF012000205DF808FB00BF4DF808ED43
:10402000FFF7EAFF34BF012000205DF808FB00BF66
:104030004DF808EDFFF7E0FF94BF012000205DF888
:1040400008FB00BF4DF808EDFFF7D2FF94BF012039
:1040500000205DF808FB00BF4DF808EDFFF7C8FF32
:1040600034BF012000205DF808FB00BF4FEA40028A
:10407000B2F1FE4F0FD34FF09E03B3EB12620DD996
:104080004FEA002343F0004310F0004F23FA02F000
:1040900018BF404270474FF00000704712F1610FA7
:1040A00001D1420205D110F0004008BF6FF000407E
:1040B00070474FF000007047844641EA000313F058
:1040C000030349D1403A23D30B6803604B68436034
:1040D0008B688360CB68C3600B6903614B69436184
:1040E0008B698361CB69C3610B6A03624B6A43626C
:1040F0008B6A8362CB6AC3620B6B03634B6B436354
:104100008B6B8363CB6BC36340304031403ADBD26F
:1041100030320BD30B6803604B6843608B6883605D
:10412000CB68C36010301031103AF3D20C3205D393
:1041300051F8043B40F8043B043AF9D2043208D069
:10414000D2071CBF11F8013B00F8013B01D30B88DB
:1041500003806046704700BF082A13D38B07B1D095
:1041600010F00303AED0C3F10403D21ADB071CBF67
:1041700011F8013B00F8013BA4D331F8023B20F8D1
:10418000023B9FE7043AD9D3013A11F8013B00F80A
:10419000013BF9D20B7803704B7843708B788370B6
:1041A00060467047830730B548D0541E002A3FD080
:1041B0000346CAB201E0013C3AD303F8012B9D0744
:1041C000F9D1032C2DD9CDB245EA05250F2C45EAAE
:1041D000054536D9A4F1100222F00F0C03F1200E90
:1041E000E6444FEA121C03F1100242E9045542E989
:1041F000025510327245F8D10CF1010214F00C0F87
:1042000003EB021204F00F0C13D0ACF1040323F003
:1042100003030433134442F8045B9342FBD10CF0D4
:1042200003042CB1CAB21C4403F8012B9C42FBD1FD
:1042300030BD64461346002CF4D1F9E7034614461A
:10424000BFE71A46A446E0E72D2D2D2D2D2D2D2D4F
:104250002D2D2D2D2D2D2D2D003D3D3D3D3D3D3D4B
:104260003D3D3D3D3D3D3D3D3D0054656D706572BC
:104270006174757261202D2043004C43445F3136D8
:104280007832004C45445F3133004C4D33355F721A
:104290006561640049444C4500546D722053766357
:0442A000000000001A
:1042A40000A24A0400000000000000000102030410
:1042B40006070809000000000102030401020304C8
:0C42C4000607080902040608AAAAAAAA14
:04000005080001F1FD
:00000001FF
